{
  "contractName": "PropertyContractV2",
  "abi": [
    {
      "anonymous": false,
      "inputs": [
        {
          "indexed": false,
          "internalType": "bool",
          "name": "result",
          "type": "bool"
        },
        {
          "indexed": false,
          "internalType": "uint256",
          "name": "ID",
          "type": "uint256"
        }
      ],
      "name": "registerPropertySucces",
      "type": "event"
    },
    {
      "anonymous": false,
      "inputs": [
        {
          "indexed": false,
          "internalType": "bool",
          "name": "result",
          "type": "bool"
        }
      ],
      "name": "transferPropertySucces",
      "type": "event"
    },
    {
      "inputs": [],
      "name": "addressAPICheck",
      "outputs": [
        {
          "internalType": "string",
          "name": "",
          "type": "string"
        }
      ],
      "stateMutability": "view",
      "type": "function",
      "constant": true
    },
    {
      "inputs": [
        {
          "internalType": "uint256",
          "name": "",
          "type": "uint256"
        }
      ],
      "name": "ownerList",
      "outputs": [
        {
          "internalType": "address",
          "name": "",
          "type": "address"
        }
      ],
      "stateMutability": "view",
      "type": "function",
      "constant": true
    },
    {
      "inputs": [],
      "name": "priceOfUrl",
      "outputs": [
        {
          "internalType": "uint256",
          "name": "",
          "type": "uint256"
        }
      ],
      "stateMutability": "view",
      "type": "function",
      "constant": true
    },
    {
      "inputs": [
        {
          "internalType": "address",
          "name": "",
          "type": "address"
        },
        {
          "internalType": "uint256",
          "name": "",
          "type": "uint256"
        }
      ],
      "name": "propertiesMapping",
      "outputs": [
        {
          "internalType": "address",
          "name": "ownerAddress",
          "type": "address"
        },
        {
          "internalType": "uint256",
          "name": "ID",
          "type": "uint256"
        },
        {
          "internalType": "string",
          "name": "location",
          "type": "string"
        },
        {
          "internalType": "uint256",
          "name": "cost",
          "type": "uint256"
        }
      ],
      "stateMutability": "view",
      "type": "function",
      "constant": true
    },
    {
      "inputs": [],
      "name": "totalPropertyCounter",
      "outputs": [
        {
          "internalType": "uint256",
          "name": "",
          "type": "uint256"
        }
      ],
      "stateMutability": "view",
      "type": "function",
      "constant": true
    },
    {
      "inputs": [
        {
          "internalType": "bytes32",
          "name": "",
          "type": "bytes32"
        },
        {
          "internalType": "string",
          "name": "result",
          "type": "string"
        }
      ],
      "name": "__callback",
      "outputs": [],
      "stateMutability": "nonpayable",
      "type": "function"
    },
    {
      "inputs": [
        {
          "internalType": "bytes32",
          "name": "_myid",
          "type": "bytes32"
        },
        {
          "internalType": "string",
          "name": "_result",
          "type": "string"
        },
        {
          "internalType": "bytes",
          "name": "_proof",
          "type": "bytes"
        }
      ],
      "name": "__callback",
      "outputs": [],
      "stateMutability": "nonpayable",
      "type": "function"
    },
    {
      "inputs": [
        {
          "internalType": "string",
          "name": "_location",
          "type": "string"
        }
      ],
      "name": "getAPICheck",
      "outputs": [],
      "stateMutability": "payable",
      "type": "function",
      "payable": true
    },
    {
      "inputs": [
        {
          "internalType": "string",
          "name": "a",
          "type": "string"
        },
        {
          "internalType": "string",
          "name": "b",
          "type": "string"
        },
        {
          "internalType": "string",
          "name": "c",
          "type": "string"
        }
      ],
      "name": "concatenate",
      "outputs": [
        {
          "internalType": "string",
          "name": "",
          "type": "string"
        }
      ],
      "stateMutability": "pure",
      "type": "function",
      "constant": true
    },
    {
      "inputs": [
        {
          "internalType": "string",
          "name": "_location",
          "type": "string"
        },
        {
          "internalType": "uint256",
          "name": "_cost",
          "type": "uint256"
        }
      ],
      "name": "registerProperty",
      "outputs": [],
      "stateMutability": "nonpayable",
      "type": "function"
    },
    {
      "inputs": [
        {
          "internalType": "address",
          "name": "_Buyer",
          "type": "address"
        },
        {
          "internalType": "uint256",
          "name": "_ID",
          "type": "uint256"
        }
      ],
      "name": "transferProperty",
      "outputs": [],
      "stateMutability": "nonpayable",
      "type": "function"
    },
    {
      "inputs": [
        {
          "internalType": "address",
          "name": "_propertyHolder",
          "type": "address"
        },
        {
          "internalType": "uint256",
          "name": "_index",
          "type": "uint256"
        }
      ],
      "name": "getProperty",
      "outputs": [
        {
          "internalType": "string",
          "name": "",
          "type": "string"
        },
        {
          "internalType": "uint256",
          "name": "",
          "type": "uint256"
        },
        {
          "internalType": "address",
          "name": "",
          "type": "address"
        },
        {
          "internalType": "uint256",
          "name": "",
          "type": "uint256"
        }
      ],
      "stateMutability": "view",
      "type": "function",
      "constant": true
    },
    {
      "inputs": [],
      "name": "getProperties",
      "outputs": [
        {
          "components": [
            {
              "internalType": "address",
              "name": "ownerAddress",
              "type": "address"
            },
            {
              "internalType": "uint256",
              "name": "ID",
              "type": "uint256"
            },
            {
              "internalType": "string",
              "name": "location",
              "type": "string"
            },
            {
              "internalType": "uint256",
              "name": "cost",
              "type": "uint256"
            }
          ],
          "internalType": "struct PropertyContractV2.Property[]",
          "name": "",
          "type": "tuple[]"
        }
      ],
      "stateMutability": "view",
      "type": "function",
      "constant": true
    },
    {
      "inputs": [
        {
          "internalType": "address",
          "name": "__propertyHolder",
          "type": "address"
        }
      ],
      "name": "getNoOfProperties",
      "outputs": [
        {
          "internalType": "uint256",
          "name": "",
          "type": "uint256"
        }
      ],
      "stateMutability": "view",
      "type": "function",
      "constant": true
    }
  ],
  "bytecode": "0x608060405234801561001057600080fd5b50613330806100206000396000f3fe6080604052600436106100dd5760003560e01c80639822b0571161007f578063bfb6bd1f11610059578063bfb6bd1f146102b4578063def79ab5146102f4578063ec0cfd0b14610331578063f644c3181461035c576100dd565b80639822b05714610230578063a075a02d1461024c578063aab1d2cd14610277576100dd565b806338bbfa50116100bb57806338bbfa501461018857806343d3b1be146101b1578063739b1fa2146101dc5780637c53971814610207576100dd565b8063127be9b6146100e257806327dc297e1461012257806332cf859f1461014b575b600080fd5b3480156100ee57600080fd5b50610109600480360381019061010491906129de565b610385565b6040516101199493929190612f2f565b60405180910390f35b34801561012e57600080fd5b5061014960048036038101906101449190612a43565b610487565b005b34801561015757600080fd5b50610172600480360381019061016d919061298c565b6104e1565b60405161017f91906130b4565b60405180910390f35b34801561019457600080fd5b506101af60048036038101906101aa9190612a97565b610532565b005b3480156101bd57600080fd5b506101c6610555565b6040516101d391906130b4565b60405180910390f35b3480156101e857600080fd5b506101f161055b565b6040516101fe91906130b4565b60405180910390f35b34801561021357600080fd5b5061022e60048036038101906102299190612bee565b610561565b005b61024a60048036038101906102459190612b16565b610791565b005b34801561025857600080fd5b506102616108c6565b60405161026e9190613026565b60405180910390f35b34801561028357600080fd5b5061029e60048036038101906102999190612b57565b610964565b6040516102ab9190613026565b60405180910390f35b3480156102c057600080fd5b506102db60048036038101906102d691906129de565b610993565b6040516102eb9493929190613048565b60405180910390f35b34801561030057600080fd5b5061031b60048036038101906103169190612c42565b610c24565b6040516103289190612f14565b60405180910390f35b34801561033d57600080fd5b50610346610c60565b6040516103539190612f7b565b60405180910390f35b34801561036857600080fd5b50610383600480360381019061037e91906129de565b610e5d565b005b6009602052816000526040600020818154811061039e57fe5b9060005260206000209060040201600091509150508060000160009054906101000a900473ffffffffffffffffffffffffffffffffffffffff1690806001015490806002018054600181600116156101000203166002900480601f0160208091040260200160405190810160405280929190818152602001828054600181600116156101000203166002900480156104775780601f1061044c57610100808354040283529160200191610477565b820191906000526020600020905b81548152906001019060200180831161045a57829003601f168201915b5050505050908060030154905084565b61048f6116fd565b73ffffffffffffffffffffffffffffffffffffffff163373ffffffffffffffffffffffffffffffffffffffff16146104c657600080fd5b80600590805190602001906104dc9291906126bc565b505050565b600080600960008473ffffffffffffffffffffffffffffffffffffffff1673ffffffffffffffffffffffffffffffffffffffff16815260200190815260200160002080549050905080915050919050565b6000801b600360008060001b815260200190815260200160002081905550505050565b60065481565b60075481565b600a600960003373ffffffffffffffffffffffffffffffffffffffff1673ffffffffffffffffffffffffffffffffffffffff16815260200190815260200160002080549050106105b057600080fd5b6001600754016007819055506105c461273c565b60405180608001604052803373ffffffffffffffffffffffffffffffffffffffff1681526020016007548152602001848152602001606484018152509050600960003373ffffffffffffffffffffffffffffffffffffffff1673ffffffffffffffffffffffffffffffffffffffff16815260200190815260200160002081908060018154018082558091505060019003906000526020600020906004020160009091909190915060008201518160000160006101000a81548173ffffffffffffffffffffffffffffffffffffffff021916908373ffffffffffffffffffffffffffffffffffffffff1602179055506020820151816001015560408201518160020190805190602001906106d89291906126bc565b506060820151816003015550506008339080600181540180825580915050600190039060005260206000200160009091909190916101000a81548173ffffffffffffffffffffffffffffffffffffffff021916908373ffffffffffffffffffffffffffffffffffffffff1602179055506000600190507f53a807395c0ba1630d96bb740c116f37e655d23ff63c0e8a06e9c6912eb263bd818360200151604051610783929190612fb8565b60405180910390a150505050565b6107cf6040518060400160405280600381526020017f55524c0000000000000000000000000000000000000000000000000000000000815250611a11565b60068190555060065447101561081a576040517f08c379a000000000000000000000000000000000000000000000000000000000815260040161081190613094565b60405180910390fd5b60606040518060600160405280603981526020016132c260399139905060606040518060400160405280600c81526020017f292e636f756e745f6869747300000000000000000000000000000000000000008152509050606061087e838584610964565b90506108bf6040518060400160405280600381526020017f55524c000000000000000000000000000000000000000000000000000000000081525082611d32565b5050505050565b60058054600181600116156101000203166002900480601f01602080910402602001604051908101604052809291908181526020018280546001816001161561010002031660029004801561095c5780601f106109315761010080835404028352916020019161095c565b820191906000526020600020905b81548152906001019060200180831161093f57829003601f168201915b505050505081565b606083838360405160200161097b93929190612ee3565b60405160208183030381529060405290509392505050565b6060600080600080600960008873ffffffffffffffffffffffffffffffffffffffff1673ffffffffffffffffffffffffffffffffffffffff16815260200190815260200160002080549050116109e857600080fd5b600960008773ffffffffffffffffffffffffffffffffffffffff1673ffffffffffffffffffffffffffffffffffffffff1681526020019081526020016000208581548110610a3257fe5b9060005260206000209060040201600201600960008873ffffffffffffffffffffffffffffffffffffffff1673ffffffffffffffffffffffffffffffffffffffff1681526020019081526020016000208681548110610a8d57fe5b906000526020600020906004020160030154600960008973ffffffffffffffffffffffffffffffffffffffff1673ffffffffffffffffffffffffffffffffffffffff1681526020019081526020016000208781548110610ae957fe5b906000526020600020906004020160000160009054906101000a900473ffffffffffffffffffffffffffffffffffffffff16600960008a73ffffffffffffffffffffffffffffffffffffffff1673ffffffffffffffffffffffffffffffffffffffff1681526020019081526020016000208881548110610b6557fe5b906000526020600020906004020160010154838054600181600116156101000203166002900480601f016020809104026020016040519081016040528092919081815260200182805460018160011615610100020316600290048015610c0c5780601f10610be157610100808354040283529160200191610c0c565b820191906000526020600020905b815481529060010190602001808311610bef57829003601f168201915b50505050509350935093509350935092959194509250565b60088181548110610c3157fe5b906000526020600020016000915054906101000a900473ffffffffffffffffffffffffffffffffffffffff1681565b60606000600960003373ffffffffffffffffffffffffffffffffffffffff1673ffffffffffffffffffffffffffffffffffffffff1681526020019081526020016000208054905011610cb157600080fd5b6060600960003373ffffffffffffffffffffffffffffffffffffffff1673ffffffffffffffffffffffffffffffffffffffff168152602001908152602001600020805480602002602001604051908101604052809291908181526020016000905b82821015610e5057838290600052602060002090600402016040518060800160405290816000820160009054906101000a900473ffffffffffffffffffffffffffffffffffffffff1673ffffffffffffffffffffffffffffffffffffffff1673ffffffffffffffffffffffffffffffffffffffff16815260200160018201548152602001600282018054600181600116156101000203166002900480601f016020809104026020016040519081016040528092919081815260200182805460018160011615610100020316600290048015610e2e5780601f10610e0357610100808354040283529160200191610e2e565b820191906000526020600020905b815481529060010190602001808311610e1157829003601f168201915b5050505050815260200160038201548152505081526020019060010190610d12565b5050505090508091505090565b3373ffffffffffffffffffffffffffffffffffffffff168273ffffffffffffffffffffffffffffffffffffffff161415610e9657600080fd5b6000805b600960003373ffffffffffffffffffffffffffffffffffffffff1673ffffffffffffffffffffffffffffffffffffffff168152602001908152602001600020805490508110156116c05782600960003373ffffffffffffffffffffffffffffffffffffffff1673ffffffffffffffffffffffffffffffffffffffff1681526020019081526020016000208281548110610f2f57fe5b90600052602060002090600402016001015414156116b357610f4f61273c565b60405180608001604052808673ffffffffffffffffffffffffffffffffffffffff168152602001858152602001600960003373ffffffffffffffffffffffffffffffffffffffff1673ffffffffffffffffffffffffffffffffffffffff1681526020019081526020016000208481548110610fc657fe5b90600052602060002090600402016002018054600181600116156101000203166002900480601f01602080910402602001604051908101604052809291908181526020018280546001816001161561010002031660029004801561106b5780601f106110405761010080835404028352916020019161106b565b820191906000526020600020905b81548152906001019060200180831161104e57829003601f168201915b50505050508152602001600960003373ffffffffffffffffffffffffffffffffffffffff1673ffffffffffffffffffffffffffffffffffffffff16815260200190815260200160002084815481106110bf57fe5b9060005260206000209060040201600301548152509050600960008673ffffffffffffffffffffffffffffffffffffffff1673ffffffffffffffffffffffffffffffffffffffff16815260200190815260200160002081908060018154018082558091505060019003906000526020600020906004020160009091909190915060008201518160000160006101000a81548173ffffffffffffffffffffffffffffffffffffffff021916908373ffffffffffffffffffffffffffffffffffffffff1602179055506020820151816001015560408201518160020190805190602001906111ac9291906126bc565b506060820151816003015550506111c161273c565b600960003373ffffffffffffffffffffffffffffffffffffffff1673ffffffffffffffffffffffffffffffffffffffff168152602001908152602001600020838154811061120b57fe5b90600052602060002090600402016040518060800160405290816000820160009054906101000a900473ffffffffffffffffffffffffffffffffffffffff1673ffffffffffffffffffffffffffffffffffffffff1673ffffffffffffffffffffffffffffffffffffffff16815260200160018201548152602001600282018054600181600116156101000203166002900480601f01602080910402602001604051908101604052809291908181526020018280546001816001161561010002031660029004801561131d5780601f106112f25761010080835404028352916020019161131d565b820191906000526020600020905b81548152906001019060200180831161130057829003601f168201915b5050505050815260200160038201548152505090506000600960003373ffffffffffffffffffffffffffffffffffffffff1673ffffffffffffffffffffffffffffffffffffffff168152602001908152602001600020805490509050600960003373ffffffffffffffffffffffffffffffffffffffff1673ffffffffffffffffffffffffffffffffffffffff16815260200190815260200160002060018203815481106113c657fe5b9060005260206000209060040201600960003373ffffffffffffffffffffffffffffffffffffffff1673ffffffffffffffffffffffffffffffffffffffff168152602001908152602001600020858154811061141e57fe5b90600052602060002090600402016000820160009054906101000a900473ffffffffffffffffffffffffffffffffffffffff168160000160006101000a81548173ffffffffffffffffffffffffffffffffffffffff021916908373ffffffffffffffffffffffffffffffffffffffff16021790555060018201548160010155600282018160020190805460018160011615610100020316600290046114c492919061277a565b506003820154816003015590505081600960003373ffffffffffffffffffffffffffffffffffffffff1673ffffffffffffffffffffffffffffffffffffffff168152602001908152602001600020600183038154811061152057fe5b906000526020600020906004020160008201518160000160006101000a81548173ffffffffffffffffffffffffffffffffffffffff021916908373ffffffffffffffffffffffffffffffffffffffff16021790555060208201518160010155604082015181600201908051906020019061159b9291906126bc565b5060608201518160030155905050600960003373ffffffffffffffffffffffffffffffffffffffff1673ffffffffffffffffffffffffffffffffffffffff1681526020019081526020016000208054806115f157fe5b6001900381819060005260206000209060040201600080820160006101000a81549073ffffffffffffffffffffffffffffffffffffffff021916905560018201600090556002820160006116459190612801565b60038201600090555050905586600884602001518154811061166357fe5b9060005260206000200160006101000a81548173ffffffffffffffffffffffffffffffffffffffff021916908373ffffffffffffffffffffffffffffffffffffffff160217905550600194505050505b8080600101915050610e9a565b507f6f1e8342d6d6686ceab45e1fe56699719353205a380f6107705044e5c4444e32816040516116f09190612f9d565b60405180910390a1505050565b60008073ffffffffffffffffffffffffffffffffffffffff16600160009054906101000a900473ffffffffffffffffffffffffffffffffffffffff1673ffffffffffffffffffffffffffffffffffffffff16148061178557506000611783600160009054906101000a900473ffffffffffffffffffffffffffffffffffffffff1661212f565b145b1561179657611794600061213a565b505b600160009054906101000a900473ffffffffffffffffffffffffffffffffffffffff1673ffffffffffffffffffffffffffffffffffffffff166338cc48316040518163ffffffff1660e01b8152600401602060405180830381600087803b15801561180057600080fd5b505af1158015611814573d6000803e3d6000fd5b505050506040513d601f19601f8201168201806040525081019061183891906129b5565b73ffffffffffffffffffffffffffffffffffffffff1660008054906101000a900473ffffffffffffffffffffffffffffffffffffffff1673ffffffffffffffffffffffffffffffffffffffff161461196c57600160009054906101000a900473ffffffffffffffffffffffffffffffffffffffff1673ffffffffffffffffffffffffffffffffffffffff166338cc48316040518163ffffffff1660e01b8152600401602060405180830381600087803b1580156118f457600080fd5b505af1158015611908573d6000803e3d6000fd5b505050506040513d601f19601f8201168201806040525081019061192c91906129b5565b6000806101000a81548173ffffffffffffffffffffffffffffffffffffffff021916908373ffffffffffffffffffffffffffffffffffffffff1602179055505b60008054906101000a900473ffffffffffffffffffffffffffffffffffffffff1673ffffffffffffffffffffffffffffffffffffffff1663c281d19e6040518163ffffffff1660e01b8152600401602060405180830381600087803b1580156119d457600080fd5b505af11580156119e8573d6000803e3d6000fd5b505050506040513d601f19601f82011682018060405250810190611a0c91906129b5565b905090565b60008073ffffffffffffffffffffffffffffffffffffffff16600160009054906101000a900473ffffffffffffffffffffffffffffffffffffffff1673ffffffffffffffffffffffffffffffffffffffff161480611a9957506000611a97600160009054906101000a900473ffffffffffffffffffffffffffffffffffffffff1661212f565b145b15611aaa57611aa8600061213a565b505b600160009054906101000a900473ffffffffffffffffffffffffffffffffffffffff1673ffffffffffffffffffffffffffffffffffffffff166338cc48316040518163ffffffff1660e01b8152600401602060405180830381600087803b158015611b1457600080fd5b505af1158015611b28573d6000803e3d6000fd5b505050506040513d601f19601f82011682018060405250810190611b4c91906129b5565b73ffffffffffffffffffffffffffffffffffffffff1660008054906101000a900473ffffffffffffffffffffffffffffffffffffffff1673ffffffffffffffffffffffffffffffffffffffff1614611c8057600160009054906101000a900473ffffffffffffffffffffffffffffffffffffffff1673ffffffffffffffffffffffffffffffffffffffff166338cc48316040518163ffffffff1660e01b8152600401602060405180830381600087803b158015611c0857600080fd5b505af1158015611c1c573d6000803e3d6000fd5b505050506040513d601f19601f82011682018060405250810190611c4091906129b5565b6000806101000a81548173ffffffffffffffffffffffffffffffffffffffff021916908373ffffffffffffffffffffffffffffffffffffffff1602179055505b60008054906101000a900473ffffffffffffffffffffffffffffffffffffffff1673ffffffffffffffffffffffffffffffffffffffff1663524f3889836040518263ffffffff1660e01b8152600401611cd99190613026565b602060405180830381600087803b158015611cf357600080fd5b505af1158015611d07573d6000803e3d6000fd5b505050506040513d601f19601f82011682018060405250810190611d2b9190612c6b565b9050919050565b60008073ffffffffffffffffffffffffffffffffffffffff16600160009054906101000a900473ffffffffffffffffffffffffffffffffffffffff1673ffffffffffffffffffffffffffffffffffffffff161480611dba57506000611db8600160009054906101000a900473ffffffffffffffffffffffffffffffffffffffff1661212f565b145b15611dcb57611dc9600061213a565b505b600160009054906101000a900473ffffffffffffffffffffffffffffffffffffffff1673ffffffffffffffffffffffffffffffffffffffff166338cc48316040518163ffffffff1660e01b8152600401602060405180830381600087803b158015611e3557600080fd5b505af1158015611e49573d6000803e3d6000fd5b505050506040513d601f19601f82011682018060405250810190611e6d91906129b5565b73ffffffffffffffffffffffffffffffffffffffff1660008054906101000a900473ffffffffffffffffffffffffffffffffffffffff1673ffffffffffffffffffffffffffffffffffffffff1614611fa157600160009054906101000a900473ffffffffffffffffffffffffffffffffffffffff1673ffffffffffffffffffffffffffffffffffffffff166338cc48316040518163ffffffff1660e01b8152600401602060405180830381600087803b158015611f2957600080fd5b505af1158015611f3d573d6000803e3d6000fd5b505050506040513d601f19601f82011682018060405250810190611f6191906129b5565b6000806101000a81548173ffffffffffffffffffffffffffffffffffffffff021916908373ffffffffffffffffffffffffffffffffffffffff1602179055505b60008060009054906101000a900473ffffffffffffffffffffffffffffffffffffffff1673ffffffffffffffffffffffffffffffffffffffff1663524f3889856040518263ffffffff1660e01b8152600401611ffd9190613026565b602060405180830381600087803b15801561201757600080fd5b505af115801561202b573d6000803e3d6000fd5b505050506040513d601f19601f8201168201806040525081019061204f9190612c6b565b905062030d403a02670de0b6b3a764000001811115612074576000801b915050612129565b60008054906101000a900473ffffffffffffffffffffffffffffffffffffffff1673ffffffffffffffffffffffffffffffffffffffff1663adf59f9982600087876040518563ffffffff1660e01b81526004016120d393929190612fe1565b6020604051808303818588803b1580156120ec57600080fd5b505af1158015612100573d6000803e3d6000fd5b50505050506040513d601f19601f820116820180604052508101906121259190612a1a565b9150505b92915050565b6000813b9050919050565b600061214461214b565b9050919050565b60008061216b731d3b2638a7cc9f2cb3d298a3da7a90b67e5506ed61212f565b111561220d57731d3b2638a7cc9f2cb3d298a3da7a90b67e5506ed600160006101000a81548173ffffffffffffffffffffffffffffffffffffffff021916908373ffffffffffffffffffffffffffffffffffffffff1602179055506122046040518060400160405280600b81526020017f6574685f6d61696e6e65740000000000000000000000000000000000000000008152506126a2565b6001905061269f565b600061222c73c03a2615d5efaf5f49f60b7bb6583eaec212fdf161212f565b11156122ce5773c03a2615d5efaf5f49f60b7bb6583eaec212fdf1600160006101000a81548173ffffffffffffffffffffffffffffffffffffffff021916908373ffffffffffffffffffffffffffffffffffffffff1602179055506122c56040518060400160405280600c81526020017f6574685f726f707374656e3300000000000000000000000000000000000000008152506126a2565b6001905061269f565b60006122ed73b7a07bcf2ba2f2703b24c0691b5278999c59ac7e61212f565b111561238f5773b7a07bcf2ba2f2703b24c0691b5278999c59ac7e600160006101000a81548173ffffffffffffffffffffffffffffffffffffffff021916908373ffffffffffffffffffffffffffffffffffffffff1602179055506123866040518060400160405280600981526020017f6574685f6b6f76616e00000000000000000000000000000000000000000000008152506126a2565b6001905061269f565b60006123ae73146500cfd35b22e4a392fe0adc06de1a1368ed4861212f565b11156124505773146500cfd35b22e4a392fe0adc06de1a1368ed48600160006101000a81548173ffffffffffffffffffffffffffffffffffffffff021916908373ffffffffffffffffffffffffffffffffffffffff1602179055506124476040518060400160405280600b81526020017f6574685f72696e6b6562790000000000000000000000000000000000000000008152506126a2565b6001905061269f565b600061246f73a2998efd205fb9d4b4963afb70778d6354ad3a4161212f565b11156125115773a2998efd205fb9d4b4963afb70778d6354ad3a41600160006101000a81548173ffffffffffffffffffffffffffffffffffffffff021916908373ffffffffffffffffffffffffffffffffffffffff1602179055506125086040518060400160405280600a81526020017f6574685f676f65726c69000000000000000000000000000000000000000000008152506126a2565b6001905061269f565b6000612530736f485c8bf6fc43ea212e93bbf8ce046c7f1cb47561212f565b111561259457736f485c8bf6fc43ea212e93bbf8ce046c7f1cb475600160006101000a81548173ffffffffffffffffffffffffffffffffffffffff021916908373ffffffffffffffffffffffffffffffffffffffff1602179055506001905061269f565b60006125b37320e12a1f859b3feae5fb2a0a32c18f5a65555bbf61212f565b1115612617577320e12a1f859b3feae5fb2a0a32c18f5a65555bbf600160006101000a81548173ffffffffffffffffffffffffffffffffffffffff021916908373ffffffffffffffffffffffffffffffffffffffff1602179055506001905061269f565b60006126367351efaf4c8b3c9afbd5ab9f4bbc82784ab6ef8faa61212f565b111561269a577351efaf4c8b3c9afbd5ab9f4bbc82784ab6ef8faa600160006101000a81548173ffffffffffffffffffffffffffffffffffffffff021916908373ffffffffffffffffffffffffffffffffffffffff1602179055506001905061269f565b600090505b90565b80600290805190602001906126b89291906126bc565b5050565b828054600181600116156101000203166002900490600052602060002090601f016020900481019282601f106126fd57805160ff191683800117855561272b565b8280016001018555821561272b579182015b8281111561272a57825182559160200191906001019061270f565b5b5090506127389190612849565b5090565b6040518060800160405280600073ffffffffffffffffffffffffffffffffffffffff1681526020016000815260200160608152602001600081525090565b828054600181600116156101000203166002900490600052602060002090601f016020900481019282601f106127b357805485556127f0565b828001600101855582156127f057600052602060002091601f016020900482015b828111156127ef5782548255916001019190600101906127d4565b5b5090506127fd9190612849565b5090565b50805460018160011615610100020316600290046000825580601f106128275750612846565b601f0160209004906000526020600020908101906128459190612849565b5b50565b5b8082111561286257600081600090555060010161284a565b5090565b6000813590506128758161327c565b92915050565b60008151905061288a8161327c565b92915050565b60008135905061289f81613293565b92915050565b6000815190506128b481613293565b92915050565b600082601f8301126128cb57600080fd5b81356128de6128d9826130fc565b6130cf565b915080825260208301602083018583830111156128fa57600080fd5b612905838284613229565b50505092915050565b600082601f83011261291f57600080fd5b813561293261292d82613128565b6130cf565b9150808252602083016020830185838301111561294e57600080fd5b612959838284613229565b50505092915050565b600081359050612971816132aa565b92915050565b600081519050612986816132aa565b92915050565b60006020828403121561299e57600080fd5b60006129ac84828501612866565b91505092915050565b6000602082840312156129c757600080fd5b60006129d58482850161287b565b91505092915050565b600080604083850312156129f157600080fd5b60006129ff85828601612866565b9250506020612a1085828601612962565b9150509250929050565b600060208284031215612a2c57600080fd5b6000612a3a848285016128a5565b91505092915050565b60008060408385031215612a5657600080fd5b6000612a6485828601612890565b925050602083013567ffffffffffffffff811115612a8157600080fd5b612a8d8582860161290e565b9150509250929050565b600080600060608486031215612aac57600080fd5b6000612aba86828701612890565b935050602084013567ffffffffffffffff811115612ad757600080fd5b612ae38682870161290e565b925050604084013567ffffffffffffffff811115612b0057600080fd5b612b0c868287016128ba565b9150509250925092565b600060208284031215612b2857600080fd5b600082013567ffffffffffffffff811115612b4257600080fd5b612b4e8482850161290e565b91505092915050565b600080600060608486031215612b6c57600080fd5b600084013567ffffffffffffffff811115612b8657600080fd5b612b928682870161290e565b935050602084013567ffffffffffffffff811115612baf57600080fd5b612bbb8682870161290e565b925050604084013567ffffffffffffffff811115612bd857600080fd5b612be48682870161290e565b9150509250925092565b60008060408385031215612c0157600080fd5b600083013567ffffffffffffffff811115612c1b57600080fd5b612c278582860161290e565b9250506020612c3885828601612962565b9150509250929050565b600060208284031215612c5457600080fd5b6000612c6284828501612962565b91505092915050565b600060208284031215612c7d57600080fd5b6000612c8b84828501612977565b91505092915050565b6000612ca08383612e62565b905092915050565b612cb1816131c5565b82525050565b612cc0816131c5565b82525050565b6000612cd182613164565b612cdb8185613187565b935083602082028501612ced85613154565b8060005b85811015612d295784840389528151612d0a8582612c94565b9450612d158361317a565b925060208a01995050600181019050612cf1565b50829750879550505050505092915050565b612d44816131d7565b82525050565b612d5381613217565b82525050565b6000612d648261316f565b612d6e8185613198565b9350612d7e818560208601613238565b612d878161326b565b840191505092915050565b6000612d9d8261316f565b612da781856131a9565b9350612db7818560208601613238565b612dc08161326b565b840191505092915050565b6000612dd68261316f565b612de081856131ba565b9350612df0818560208601613238565b80840191505092915050565b6000612e09602e836131a9565b91507f706c656173652061646420736f6d652045544820746f20636f76657220666f7260008301527f20746865207175657279206665650000000000000000000000000000000000006020830152604082019050919050565b6000608083016000830151612e7a6000860182612ca8565b506020830151612e8d6020860182612ec5565b5060408301518482036040860152612ea58282612d59565b9150506060830151612eba6060860182612ec5565b508091505092915050565b612ece8161320d565b82525050565b612edd8161320d565b82525050565b6000612eef8286612dcb565b9150612efb8285612dcb565b9150612f078284612dcb565b9150819050949350505050565b6000602082019050612f296000830184612cb7565b92915050565b6000608082019050612f446000830187612cb7565b612f516020830186612ed4565b8181036040830152612f638185612d92565b9050612f726060830184612ed4565b95945050505050565b60006020820190508181036000830152612f958184612cc6565b905092915050565b6000602082019050612fb26000830184612d3b565b92915050565b6000604082019050612fcd6000830185612d3b565b612fda6020830184612ed4565b9392505050565b6000606082019050612ff66000830186612d4a565b81810360208301526130088185612d92565b9050818103604083015261301c8184612d92565b9050949350505050565b600060208201905081810360008301526130408184612d92565b905092915050565b600060808201905081810360008301526130628187612d92565b90506130716020830186612ed4565b61307e6040830185612cb7565b61308b6060830184612ed4565b95945050505050565b600060208201905081810360008301526130ad81612dfc565b9050919050565b60006020820190506130c96000830184612ed4565b92915050565b6000604051905081810181811067ffffffffffffffff821117156130f257600080fd5b8060405250919050565b600067ffffffffffffffff82111561311357600080fd5b601f19601f8301169050602081019050919050565b600067ffffffffffffffff82111561313f57600080fd5b601f19601f8301169050602081019050919050565b6000819050602082019050919050565b600081519050919050565b600081519050919050565b6000602082019050919050565b600082825260208201905092915050565b600082825260208201905092915050565b600082825260208201905092915050565b600081905092915050565b60006131d0826131ed565b9050919050565b60008115159050919050565b6000819050919050565b600073ffffffffffffffffffffffffffffffffffffffff82169050919050565b6000819050919050565b60006132228261320d565b9050919050565b82818337600083830152505050565b60005b8381101561325657808201518184015260208101905061323b565b83811115613265576000848401525b50505050565b6000601f19601f8301169050919050565b613285816131c5565b811461329057600080fd5b50565b61329c816131e3565b81146132a757600080fd5b50565b6132b38161320d565b81146132be57600080fd5b5056fe6a736f6e2868747470733a2f2f6170692e646174612e616d7374657264616d2e6e6c2f61746c61732f7365617263682f61647265732f3f713da26469706673582212205ced90477ac5d3bba59a870b2ff2bb29877e840589bb0ab5c10da2d4892b554864736f6c634300060c0033",
  "immutableReferences": {},
  "source": "/*\nYou can use Play editor with any contract.\nPaste it in the editor and wait for the preview to start interacting with it.\n\n**To interact with the contract you will need a Metamask extension.\n*/\n\npragma solidity ^0.6.0;\npragma experimental ABIEncoderV2;\nimport \"./provableAPI.sol\";\nimport \"@openzeppelin/upgrades-core/contracts/Initializable.sol\";\n\n\ncontract PropertyContractV2 is usingProvable\n{\n    \n  //Provable variables\n  string  public addressAPICheck;\n  uint256 public priceOfUrl;\n  \n \n  //Property class\n  struct Property \n    {\n        address ownerAddress;\n        uint ID;   \n        string location;\n        uint cost;\n    }\n\n  \n  // Total count of properties determines property ID, could use random instead.\n  uint public totalPropertyCounter;\n  \n  // quicklist for look up owner of Property by ID, ID = index\n  address[] public ownerList;\n  \n  //The events of a couple functions\n  event transferPropertySucces(bool result); \n  event registerPropertySucces(bool result, uint ID);\n   \n  //mapping of the address to the array of properties\n  mapping (address => Property[]) public propertiesMapping;\n  \n  //Functions for provable API call\n  \n   function __callback(bytes32 /* myid prevent warning*/ , string memory result ) override public {\n       if (msg.sender != provable_cbAddress()) revert();\n       addressAPICheck = result;\n   }\n\n   function getAPICheck(string memory _location) public payable {\n       priceOfUrl = provable_getPrice(\"URL\");\n       require (address(this).balance >= priceOfUrl,\"please add some ETH to cover for the query fee\");\n       string memory localTempStart = \"json(https://api.data.amsterdam.nl/atlas/search/adres/?q=\";\n       string memory localTempEnd = \").count_hits\";\n       string memory localTemp = concatenate(localTempStart , _location,  localTempEnd);\n       provable_query(\"URL\", localTemp);\n   }\n   \n   function concatenate(string memory a,string memory b,string memory c )public pure returns(string memory) {\n            return string(abi.encodePacked(a, b , c));\n        }\n\n\n  //This function register a property for the sender.\n  //Could add some authirization, who could register properties.\n  function registerProperty(string memory _location, uint _cost) public\n    {\n        require(propertiesMapping[msg.sender].length < 10);\n        totalPropertyCounter = totalPropertyCounter + 1;\n        Property memory myproperty = Property(\n           {\n                ownerAddress: msg.sender,\n                location: _location,\n                cost: _cost +100,\n                ID: totalPropertyCounter\n            });\n        propertiesMapping[msg.sender].push(myproperty);\n        ownerList.push(msg.sender);\n        bool result = true;\n        emit registerPropertySucces(result, myproperty.ID);\n  \n\t}\n  \n  //Transfer property. Push property to buyer , pop properrty from old owner.\n  //Does the old owner transfers to the new owner?\n  function transferProperty(address _Buyer, uint _ID) public\n    {\n        require(_Buyer != msg.sender);\n        bool result = false;\n        for(uint i=0; i < (propertiesMapping[msg.sender].length);i++)    \n        {\n            if (propertiesMapping[msg.sender][i].ID == _ID)\n            {\n                Property memory myproperty = Property(\n                  {\n                    ownerAddress:_Buyer,\n                    location: propertiesMapping[msg.sender][i].location,\n                    cost: propertiesMapping[msg.sender][i].cost,\n                    ID: _ID\n                  });\n                //push property to mapping and remove from other mapping\n                propertiesMapping[_Buyer].push(myproperty);   \n                Property memory temp = propertiesMapping[msg.sender][i];\n                uint arraySize = propertiesMapping[msg.sender].length;\n                propertiesMapping[msg.sender][i] = propertiesMapping[msg.sender][arraySize-1];\n                propertiesMapping[msg.sender][arraySize-1] = temp;\n                propertiesMapping[msg.sender].pop();\n                \n                //change owner in quicklist\n                ownerList[myproperty.ID]=_Buyer;\n                result = true;                \n            }\n        }\n        emit transferPropertySucces(result);                \n    }\n  \n  //Returns property of certain index\n  function getProperty(address _propertyHolder, uint _index) public view returns (string memory, uint, address,uint)\n    {\n        require(propertiesMapping[_propertyHolder].length >0 );\n        return (propertiesMapping[_propertyHolder][_index].location, \n                propertiesMapping[_propertyHolder][_index].cost,\n                propertiesMapping[_propertyHolder][_index].ownerAddress,\n                propertiesMapping[_propertyHolder][_index].ID);\n            \n    }\n\n  function getProperties() public view returns (Property[] memory)\n  {\n    require(propertiesMapping[msg.sender].length >0 );\n    Property[] memory properties = propertiesMapping[msg.sender];\n    return properties;\n  }\n  \n  function getNoOfProperties(address __propertyHolder) public view returns (uint)\n    {\n        uint result = propertiesMapping[__propertyHolder].length;\n        return result;\n    }\n\n}",
  "sourcePath": "C:/Users/Cas/Documents/GitHub/BC3_Cas/PD-09/contracts/PropertyContractV2.sol",
  "compiler": {
    "name": "solc",
    "version": "0.6.12+commit.27d51765.Emscripten.clang"
  },
  "schemaVersion": "3.3.3",
  "updatedAt": "2021-02-08T17:46:46.651Z",
  "networkType": "ethereum",
  "devdoc": {
    "kind": "dev",
    "methods": {},
    "version": 1
  },
  "userdoc": {
    "kind": "user",
    "methods": {},
    "version": 1
  }
}