{
  "contractName": "PropertyContract",
  "abi": [
    {
      "anonymous": false,
      "inputs": [
        {
          "indexed": false,
          "internalType": "bool",
          "name": "result",
          "type": "bool"
        },
        {
          "indexed": false,
          "internalType": "uint256",
          "name": "ID",
          "type": "uint256"
        }
      ],
      "name": "registerPropertySucces",
      "type": "event"
    },
    {
      "anonymous": false,
      "inputs": [
        {
          "indexed": false,
          "internalType": "bool",
          "name": "result",
          "type": "bool"
        }
      ],
      "name": "transferPropertySucces",
      "type": "event"
    },
    {
      "inputs": [
        {
          "internalType": "uint256",
          "name": "",
          "type": "uint256"
        }
      ],
      "name": "ownerList",
      "outputs": [
        {
          "internalType": "address",
          "name": "",
          "type": "address"
        }
      ],
      "stateMutability": "view",
      "type": "function",
      "constant": true
    },
    {
      "inputs": [
        {
          "internalType": "address",
          "name": "",
          "type": "address"
        },
        {
          "internalType": "uint256",
          "name": "",
          "type": "uint256"
        }
      ],
      "name": "propertiesMapping",
      "outputs": [
        {
          "internalType": "address",
          "name": "ownerAddress",
          "type": "address"
        },
        {
          "internalType": "uint256",
          "name": "ID",
          "type": "uint256"
        },
        {
          "internalType": "string",
          "name": "location",
          "type": "string"
        },
        {
          "internalType": "uint256",
          "name": "cost",
          "type": "uint256"
        }
      ],
      "stateMutability": "view",
      "type": "function",
      "constant": true
    },
    {
      "inputs": [],
      "name": "totalPropertyCounter",
      "outputs": [
        {
          "internalType": "uint256",
          "name": "",
          "type": "uint256"
        }
      ],
      "stateMutability": "view",
      "type": "function",
      "constant": true
    },
    {
      "inputs": [
        {
          "internalType": "string",
          "name": "_location",
          "type": "string"
        },
        {
          "internalType": "uint256",
          "name": "_cost",
          "type": "uint256"
        }
      ],
      "name": "registerProperty",
      "outputs": [],
      "stateMutability": "nonpayable",
      "type": "function"
    },
    {
      "inputs": [
        {
          "internalType": "address",
          "name": "_Buyer",
          "type": "address"
        },
        {
          "internalType": "uint256",
          "name": "_ID",
          "type": "uint256"
        }
      ],
      "name": "transferProperty",
      "outputs": [],
      "stateMutability": "nonpayable",
      "type": "function"
    },
    {
      "inputs": [
        {
          "internalType": "address",
          "name": "_propertyHolder",
          "type": "address"
        },
        {
          "internalType": "uint256",
          "name": "_index",
          "type": "uint256"
        }
      ],
      "name": "getProperty",
      "outputs": [
        {
          "internalType": "string",
          "name": "",
          "type": "string"
        },
        {
          "internalType": "uint256",
          "name": "",
          "type": "uint256"
        },
        {
          "internalType": "address",
          "name": "",
          "type": "address"
        },
        {
          "internalType": "uint256",
          "name": "",
          "type": "uint256"
        }
      ],
      "stateMutability": "view",
      "type": "function",
      "constant": true
    },
    {
      "inputs": [],
      "name": "getProperties",
      "outputs": [
        {
          "components": [
            {
              "internalType": "address",
              "name": "ownerAddress",
              "type": "address"
            },
            {
              "internalType": "uint256",
              "name": "ID",
              "type": "uint256"
            },
            {
              "internalType": "string",
              "name": "location",
              "type": "string"
            },
            {
              "internalType": "uint256",
              "name": "cost",
              "type": "uint256"
            }
          ],
          "internalType": "struct PropertyContract.Property[]",
          "name": "",
          "type": "tuple[]"
        }
      ],
      "stateMutability": "view",
      "type": "function",
      "constant": true
    },
    {
      "inputs": [
        {
          "internalType": "address",
          "name": "__propertyHolder",
          "type": "address"
        }
      ],
      "name": "getNoOfProperties",
      "outputs": [
        {
          "internalType": "uint256",
          "name": "",
          "type": "uint256"
        }
      ],
      "stateMutability": "view",
      "type": "function",
      "constant": true
    }
  ],
  "bytecode": "0x608060405234801561001057600080fd5b50611dfc806100206000396000f3fe608060405234801561001057600080fd5b50600436106100885760003560e01c8063bfb6bd1f1161005b578063bfb6bd1f1461012a578063def79ab51461015d578063ec0cfd0b1461018d578063f644c318146101ab57610088565b8063127be9b61461008d57806332cf859f146100c0578063739b1fa2146100f05780637c5397181461010e575b600080fd5b6100a760048036038101906100a291906116e8565b6101c7565b6040516100b79493929190611965565b60405180910390f35b6100da60048036038101906100d591906116bf565b6102bc565b6040516100e79190611a63565b60405180910390f35b6100f861030d565b6040516101059190611a63565b60405180910390f35b61012860048036038101906101239190611724565b610313565b005b610144600480360381019061013f91906116e8565b610543565b6040516101549493929190611a17565b60405180910390f35b61017760048036038101906101729190611778565b610878565b604051610184919061194a565b60405180910390f35b6101956108b7565b6040516101a291906119b1565b60405180910390f35b6101c560048036038101906101c091906116e8565b610aa4565b005b600260205281600052604060002081815481106101e357600080fd5b9060005260206000209060040201600091509150508060000160009054906101000a900473ffffffffffffffffffffffffffffffffffffffff169080600101549080600201805461023390611c4e565b80601f016020809104026020016040519081016040528092919081815260200182805461025f90611c4e565b80156102ac5780601f10610281576101008083540402835291602001916102ac565b820191906000526020600020905b81548152906001019060200180831161028f57829003601f168201915b5050505050908060030154905084565b600080600260008473ffffffffffffffffffffffffffffffffffffffff1673ffffffffffffffffffffffffffffffffffffffff16815260200190815260200160002080549050905080915050919050565b60005481565b600a600260003373ffffffffffffffffffffffffffffffffffffffff1673ffffffffffffffffffffffffffffffffffffffff168152602001908152602001600020805490501061036257600080fd5b60016000546103719190611b3a565b600081905550600060405180608001604052803373ffffffffffffffffffffffffffffffffffffffff1681526020016000548152602001848152602001838152509050600260003373ffffffffffffffffffffffffffffffffffffffff1673ffffffffffffffffffffffffffffffffffffffff16815260200190815260200160002081908060018154018082558091505060019003906000526020600020906004020160009091909190915060008201518160000160006101000a81548173ffffffffffffffffffffffffffffffffffffffff021916908373ffffffffffffffffffffffffffffffffffffffff16021790555060208201518160010155604082015181600201908051906020019061048a9291906114bd565b506060820151816003015550506001339080600181540180825580915050600190039060005260206000200160009091909190916101000a81548173ffffffffffffffffffffffffffffffffffffffff021916908373ffffffffffffffffffffffffffffffffffffffff1602179055506000600190507f53a807395c0ba1630d96bb740c116f37e655d23ff63c0e8a06e9c6912eb263bd8183602001516040516105359291906119ee565b60405180910390a150505050565b6060600080600080600260008873ffffffffffffffffffffffffffffffffffffffff1673ffffffffffffffffffffffffffffffffffffffff168152602001908152602001600020805490501161059857600080fd5b600260008773ffffffffffffffffffffffffffffffffffffffff1673ffffffffffffffffffffffffffffffffffffffff168152602001908152602001600020858154811061060f577f4e487b7100000000000000000000000000000000000000000000000000000000600052603260045260246000fd5b9060005260206000209060040201600201600260008873ffffffffffffffffffffffffffffffffffffffff1673ffffffffffffffffffffffffffffffffffffffff1681526020019081526020016000208681548110610697577f4e487b7100000000000000000000000000000000000000000000000000000000600052603260045260246000fd5b906000526020600020906004020160030154600260008973ffffffffffffffffffffffffffffffffffffffff1673ffffffffffffffffffffffffffffffffffffffff1681526020019081526020016000208781548110610720577f4e487b7100000000000000000000000000000000000000000000000000000000600052603260045260246000fd5b906000526020600020906004020160000160009054906101000a900473ffffffffffffffffffffffffffffffffffffffff16600260008a73ffffffffffffffffffffffffffffffffffffffff1673ffffffffffffffffffffffffffffffffffffffff16815260200190815260200160002088815481106107c9577f4e487b7100000000000000000000000000000000000000000000000000000000600052603260045260246000fd5b9060005260206000209060040201600101548380546107e790611c4e565b80601f016020809104026020016040519081016040528092919081815260200182805461081390611c4e565b80156108605780601f1061083557610100808354040283529160200191610860565b820191906000526020600020905b81548152906001019060200180831161084357829003601f168201915b50505050509350935093509350935092959194509250565b6001818154811061088857600080fd5b906000526020600020016000915054906101000a900473ffffffffffffffffffffffffffffffffffffffff1681565b60606000600260003373ffffffffffffffffffffffffffffffffffffffff1673ffffffffffffffffffffffffffffffffffffffff168152602001908152602001600020805490501161090857600080fd5b6000600260003373ffffffffffffffffffffffffffffffffffffffff1673ffffffffffffffffffffffffffffffffffffffff168152602001908152602001600020805480602002602001604051908101604052809291908181526020016000905b82821015610a9757838290600052602060002090600402016040518060800160405290816000820160009054906101000a900473ffffffffffffffffffffffffffffffffffffffff1673ffffffffffffffffffffffffffffffffffffffff1673ffffffffffffffffffffffffffffffffffffffff168152602001600182015481526020016002820180546109fc90611c4e565b80601f0160208091040260200160405190810160405280929190818152602001828054610a2890611c4e565b8015610a755780601f10610a4a57610100808354040283529160200191610a75565b820191906000526020600020905b815481529060010190602001808311610a5857829003601f168201915b5050505050815260200160038201548152505081526020019060010190610969565b5050505090508091505090565b3373ffffffffffffffffffffffffffffffffffffffff168273ffffffffffffffffffffffffffffffffffffffff161415610add57600080fd5b6000805b600260003373ffffffffffffffffffffffffffffffffffffffff1673ffffffffffffffffffffffffffffffffffffffff168152602001908152602001600020805490508110156114805782600260003373ffffffffffffffffffffffffffffffffffffffff1673ffffffffffffffffffffffffffffffffffffffff1681526020019081526020016000208281548110610ba3577f4e487b7100000000000000000000000000000000000000000000000000000000600052603260045260246000fd5b906000526020600020906004020160010154141561146d57600060405180608001604052808673ffffffffffffffffffffffffffffffffffffffff168152602001858152602001600260003373ffffffffffffffffffffffffffffffffffffffff1673ffffffffffffffffffffffffffffffffffffffff1681526020019081526020016000208481548110610c61577f4e487b7100000000000000000000000000000000000000000000000000000000600052603260045260246000fd5b90600052602060002090600402016002018054610c7d90611c4e565b80601f0160208091040260200160405190810160405280929190818152602001828054610ca990611c4e565b8015610cf65780601f10610ccb57610100808354040283529160200191610cf6565b820191906000526020600020905b815481529060010190602001808311610cd957829003601f168201915b50505050508152602001600260003373ffffffffffffffffffffffffffffffffffffffff1673ffffffffffffffffffffffffffffffffffffffff1681526020019081526020016000208481548110610d77577f4e487b7100000000000000000000000000000000000000000000000000000000600052603260045260246000fd5b9060005260206000209060040201600301548152509050600260008673ffffffffffffffffffffffffffffffffffffffff1673ffffffffffffffffffffffffffffffffffffffff16815260200190815260200160002081908060018154018082558091505060019003906000526020600020906004020160009091909190915060008201518160000160006101000a81548173ffffffffffffffffffffffffffffffffffffffff021916908373ffffffffffffffffffffffffffffffffffffffff160217905550602082015181600101556040820151816002019080519060200190610e649291906114bd565b506060820151816003015550506000600260003373ffffffffffffffffffffffffffffffffffffffff1673ffffffffffffffffffffffffffffffffffffffff1681526020019081526020016000208381548110610eea577f4e487b7100000000000000000000000000000000000000000000000000000000600052603260045260246000fd5b90600052602060002090600402016040518060800160405290816000820160009054906101000a900473ffffffffffffffffffffffffffffffffffffffff1673ffffffffffffffffffffffffffffffffffffffff1673ffffffffffffffffffffffffffffffffffffffff16815260200160018201548152602001600282018054610f7390611c4e565b80601f0160208091040260200160405190810160405280929190818152602001828054610f9f90611c4e565b8015610fec5780601f10610fc157610100808354040283529160200191610fec565b820191906000526020600020905b815481529060010190602001808311610fcf57829003601f168201915b5050505050815260200160038201548152505090506000600260003373ffffffffffffffffffffffffffffffffffffffff1673ffffffffffffffffffffffffffffffffffffffff168152602001908152602001600020805490509050600260003373ffffffffffffffffffffffffffffffffffffffff1673ffffffffffffffffffffffffffffffffffffffff1681526020019081526020016000206001826110949190611b90565b815481106110cb577f4e487b7100000000000000000000000000000000000000000000000000000000600052603260045260246000fd5b9060005260206000209060040201600260003373ffffffffffffffffffffffffffffffffffffffff1673ffffffffffffffffffffffffffffffffffffffff1681526020019081526020016000208581548110611150577f4e487b7100000000000000000000000000000000000000000000000000000000600052603260045260246000fd5b90600052602060002090600402016000820160009054906101000a900473ffffffffffffffffffffffffffffffffffffffff168160000160006101000a81548173ffffffffffffffffffffffffffffffffffffffff021916908373ffffffffffffffffffffffffffffffffffffffff1602179055506001820154816001015560028201816002019080546111e390611c4e565b6111ee929190611543565b506003820154816003015590505081600260003373ffffffffffffffffffffffffffffffffffffffff1673ffffffffffffffffffffffffffffffffffffffff1681526020019081526020016000206001836112499190611b90565b81548110611280577f4e487b7100000000000000000000000000000000000000000000000000000000600052603260045260246000fd5b906000526020600020906004020160008201518160000160006101000a81548173ffffffffffffffffffffffffffffffffffffffff021916908373ffffffffffffffffffffffffffffffffffffffff1602179055506020820151816001015560408201518160020190805190602001906112fb9291906114bd565b5060608201518160030155905050600260003373ffffffffffffffffffffffffffffffffffffffff1673ffffffffffffffffffffffffffffffffffffffff16815260200190815260200160002080548061137e577f4e487b7100000000000000000000000000000000000000000000000000000000600052603160045260246000fd5b6001900381819060005260206000209060040201600080820160006101000a81549073ffffffffffffffffffffffffffffffffffffffff021916905560018201600090556002820160006113d291906115d0565b60038201600090555050905586600184602001518154811061141d577f4e487b7100000000000000000000000000000000000000000000000000000000600052603260045260246000fd5b9060005260206000200160006101000a81548173ffffffffffffffffffffffffffffffffffffffff021916908373ffffffffffffffffffffffffffffffffffffffff160217905550600194505050505b808061147890611cb1565b915050610ae1565b507f6f1e8342d6d6686ceab45e1fe56699719353205a380f6107705044e5c4444e32816040516114b091906119d3565b60405180910390a1505050565b8280546114c990611c4e565b90600052602060002090601f0160209004810192826114eb5760008555611532565b82601f1061150457805160ff1916838001178555611532565b82800160010185558215611532579182015b82811115611531578251825591602001919060010190611516565b5b50905061153f9190611610565b5090565b82805461154f90611c4e565b90600052602060002090601f01602090048101928261157157600085556115bf565b82601f1061158257805485556115bf565b828001600101855582156115bf57600052602060002091601f016020900482015b828111156115be5782548255916001019190600101906115a3565b5b5090506115cc9190611610565b5090565b5080546115dc90611c4e565b6000825580601f106115ee575061160d565b601f01602090049060005260206000209081019061160c9190611610565b5b50565b5b80821115611629576000816000905550600101611611565b5090565b600061164061163b84611aa3565b611a7e565b90508281526020810184848401111561165857600080fd5b611663848285611c0c565b509392505050565b60008135905061167a81611d98565b92915050565b600082601f83011261169157600080fd5b81356116a184826020860161162d565b91505092915050565b6000813590506116b981611daf565b92915050565b6000602082840312156116d157600080fd5b60006116df8482850161166b565b91505092915050565b600080604083850312156116fb57600080fd5b60006117098582860161166b565b925050602061171a858286016116aa565b9150509250929050565b6000806040838503121561173757600080fd5b600083013567ffffffffffffffff81111561175157600080fd5b61175d85828601611680565b925050602061176e858286016116aa565b9150509250929050565b60006020828403121561178a57600080fd5b6000611798848285016116aa565b91505092915050565b60006117ad83836118c9565b905092915050565b6117be81611bc4565b82525050565b6117cd81611bc4565b82525050565b60006117de82611ae4565b6117e88185611b07565b9350836020820285016117fa85611ad4565b8060005b85811015611836578484038952815161181785826117a1565b945061182283611afa565b925060208a019950506001810190506117fe565b50829750879550505050505092915050565b61185181611bd6565b82525050565b600061186282611aef565b61186c8185611b18565b935061187c818560208601611c1b565b61188581611d87565b840191505092915050565b600061189b82611aef565b6118a58185611b29565b93506118b5818560208601611c1b565b6118be81611d87565b840191505092915050565b60006080830160008301516118e160008601826117b5565b5060208301516118f4602086018261192c565b506040830151848203604086015261190c8282611857565b9150506060830151611921606086018261192c565b508091505092915050565b61193581611c02565b82525050565b61194481611c02565b82525050565b600060208201905061195f60008301846117c4565b92915050565b600060808201905061197a60008301876117c4565b611987602083018661193b565b81810360408301526119998185611890565b90506119a8606083018461193b565b95945050505050565b600060208201905081810360008301526119cb81846117d3565b905092915050565b60006020820190506119e86000830184611848565b92915050565b6000604082019050611a036000830185611848565b611a10602083018461193b565b9392505050565b60006080820190508181036000830152611a318187611890565b9050611a40602083018661193b565b611a4d60408301856117c4565b611a5a606083018461193b565b95945050505050565b6000602082019050611a78600083018461193b565b92915050565b6000611a88611a99565b9050611a948282611c80565b919050565b6000604051905090565b600067ffffffffffffffff821115611abe57611abd611d58565b5b611ac782611d87565b9050602081019050919050565b6000819050602082019050919050565b600081519050919050565b600081519050919050565b6000602082019050919050565b600082825260208201905092915050565b600082825260208201905092915050565b600082825260208201905092915050565b6000611b4582611c02565b9150611b5083611c02565b9250827fffffffffffffffffffffffffffffffffffffffffffffffffffffffffffffffff03821115611b8557611b84611cfa565b5b828201905092915050565b6000611b9b82611c02565b9150611ba683611c02565b925082821015611bb957611bb8611cfa565b5b828203905092915050565b6000611bcf82611be2565b9050919050565b60008115159050919050565b600073ffffffffffffffffffffffffffffffffffffffff82169050919050565b6000819050919050565b82818337600083830152505050565b60005b83811015611c39578082015181840152602081019050611c1e565b83811115611c48576000848401525b50505050565b60006002820490506001821680611c6657607f821691505b60208210811415611c7a57611c79611d29565b5b50919050565b611c8982611d87565b810181811067ffffffffffffffff82111715611ca857611ca7611d58565b5b80604052505050565b6000611cbc82611c02565b91507fffffffffffffffffffffffffffffffffffffffffffffffffffffffffffffffff821415611cef57611cee611cfa565b5b600182019050919050565b7f4e487b7100000000000000000000000000000000000000000000000000000000600052601160045260246000fd5b7f4e487b7100000000000000000000000000000000000000000000000000000000600052602260045260246000fd5b7f4e487b7100000000000000000000000000000000000000000000000000000000600052604160045260246000fd5b6000601f19601f8301169050919050565b611da181611bc4565b8114611dac57600080fd5b50565b611db881611c02565b8114611dc357600080fd5b5056fea2646970667358221220fcb97a9e3d2d861681cb8ab62ac76694b5c20702f3322270ca4edb29b92426b864736f6c63430008010033",
  "immutableReferences": {},
  "source": "/*\r\nYou can use Play editor with any contract.\r\nPaste it in the editor and wait for the preview to start interacting with it.\r\n\r\n**To interact with the contract you will need a Metamask extension.\r\n*/\r\n\r\npragma solidity 0.8.1;\r\n\r\n\r\ncontract PropertyContract\r\n{\r\n  //Property class\r\n  struct Property \r\n    {\r\n        address ownerAddress;\r\n        uint ID;   \r\n        string location;\r\n        uint cost;\r\n           \r\n    }\r\n  // Total count of properties determines property ID, could use random instead.\r\n  uint public totalPropertyCounter;\r\n  \r\n  // quicklist for look up owner of Property by ID, ID = index\r\n  address[] public ownerList;\r\n  \r\n  //The events of a couple functions\r\n  event transferPropertySucces(bool result); \r\n  event registerPropertySucces(bool result, uint ID);\r\n   \r\n  //mapping of the address to the array of properties\r\n  mapping (address => Property[]) public propertiesMapping;\r\n\r\n  //This function register a property for the sender.\r\n  //Could add some authirization, who could register properties.\r\n  function registerProperty(string memory _location, uint _cost) public\r\n    {\r\n        require(propertiesMapping[msg.sender].length < 10);\r\n        totalPropertyCounter = totalPropertyCounter + 1;\r\n        Property memory myproperty = Property(\r\n           {\r\n                ownerAddress: msg.sender,\r\n                location: _location,\r\n                cost: _cost,\r\n                ID: totalPropertyCounter\r\n            });\r\n        propertiesMapping[msg.sender].push(myproperty);\r\n        ownerList.push(msg.sender);\r\n        bool result = true;\r\n        emit registerPropertySucces(result, myproperty.ID);\r\n  \r\n\t}\r\n  \r\n  //Transfer property. Push property to buyer , pop properrty from old owner.\r\n  //Does the old owner transfers to the new owner?\r\n  function transferProperty(address _Buyer, uint _ID) public\r\n    {\r\n        require(_Buyer != msg.sender);\r\n        bool result = false;\r\n        for(uint i=0; i < (propertiesMapping[msg.sender].length);i++)    \r\n        {\r\n            if (propertiesMapping[msg.sender][i].ID == _ID)\r\n            {\r\n                Property memory myproperty = Property(\r\n                  {\r\n                    ownerAddress:_Buyer,\r\n                    location: propertiesMapping[msg.sender][i].location,\r\n                    cost: propertiesMapping[msg.sender][i].cost,\r\n                    ID: _ID\r\n                  });\r\n                //push property to mapping and remove from other mapping\r\n                propertiesMapping[_Buyer].push(myproperty);   \r\n                Property memory temp = propertiesMapping[msg.sender][i];\r\n                uint arraySize = propertiesMapping[msg.sender].length;\r\n                propertiesMapping[msg.sender][i] = propertiesMapping[msg.sender][arraySize-1];\r\n                propertiesMapping[msg.sender][arraySize-1] = temp;\r\n                propertiesMapping[msg.sender].pop();\r\n                \r\n                //change owner in quicklist\r\n                ownerList[myproperty.ID]=_Buyer;\r\n                result = true;                \r\n            }\r\n        }\r\n        emit transferPropertySucces(result);                \r\n    }\r\n  \r\n  //Returns property of certain index\r\n  function getProperty(address _propertyHolder, uint _index) public view returns (string memory, uint, address,uint)\r\n    {\r\n        require(propertiesMapping[_propertyHolder].length >0 );\r\n        return (propertiesMapping[_propertyHolder][_index].location, \r\n                propertiesMapping[_propertyHolder][_index].cost,\r\n                propertiesMapping[_propertyHolder][_index].ownerAddress,\r\n                propertiesMapping[_propertyHolder][_index].ID);\r\n            \r\n    }\r\n\r\n  function getProperties() public view returns (Property[] memory)\r\n  {\r\n    require(propertiesMapping[msg.sender].length >0 );\r\n    Property[] memory properties = propertiesMapping[msg.sender];\r\n    return properties;\r\n  }\r\n  \r\n  function getNoOfProperties(address __propertyHolder) public view returns (uint)\r\n    {\r\n        uint result = propertiesMapping[__propertyHolder].length;\r\n        return result;\r\n    }\r\n\r\n}",
  "sourcePath": "C:/Users/Cas/Documents/GitHub/BC3_Cas/PD-07/contracts/contract.sol",
  "compiler": {
    "name": "solc",
    "version": "0.8.1+commit.df193b15.Emscripten.clang"
  },
  "schemaVersion": "3.3.3",
  "updatedAt": "2021-02-03T14:35:12.248Z",
  "networkType": "ethereum",
  "devdoc": {
    "kind": "dev",
    "methods": {},
    "version": 1
  },
  "userdoc": {
    "kind": "user",
    "methods": {},
    "version": 1
  }
}