{
  "contractName": "PropertyContract",
  "abi": [
    {
      "anonymous": false,
      "inputs": [
        {
          "indexed": true,
          "internalType": "address",
          "name": "previousOwner",
          "type": "address"
        },
        {
          "indexed": true,
          "internalType": "address",
          "name": "newOwner",
          "type": "address"
        }
      ],
      "name": "OwnershipTransferred",
      "type": "event"
    },
    {
      "anonymous": false,
      "inputs": [
        {
          "indexed": false,
          "internalType": "bool",
          "name": "result",
          "type": "bool"
        },
        {
          "indexed": false,
          "internalType": "uint256",
          "name": "ID",
          "type": "uint256"
        }
      ],
      "name": "registerPropertySucces",
      "type": "event"
    },
    {
      "anonymous": false,
      "inputs": [
        {
          "indexed": false,
          "internalType": "bool",
          "name": "result",
          "type": "bool"
        }
      ],
      "name": "transferPropertySucces",
      "type": "event"
    },
    {
      "inputs": [],
      "name": "addressAPICheck",
      "outputs": [
        {
          "internalType": "string",
          "name": "",
          "type": "string"
        }
      ],
      "stateMutability": "view",
      "type": "function",
      "constant": true
    },
    {
      "inputs": [],
      "name": "owner",
      "outputs": [
        {
          "internalType": "address",
          "name": "",
          "type": "address"
        }
      ],
      "stateMutability": "view",
      "type": "function",
      "constant": true
    },
    {
      "inputs": [
        {
          "internalType": "uint256",
          "name": "",
          "type": "uint256"
        }
      ],
      "name": "ownerList",
      "outputs": [
        {
          "internalType": "address",
          "name": "",
          "type": "address"
        }
      ],
      "stateMutability": "view",
      "type": "function",
      "constant": true
    },
    {
      "inputs": [],
      "name": "priceOfUrl",
      "outputs": [
        {
          "internalType": "uint256",
          "name": "",
          "type": "uint256"
        }
      ],
      "stateMutability": "view",
      "type": "function",
      "constant": true
    },
    {
      "inputs": [
        {
          "internalType": "address",
          "name": "",
          "type": "address"
        },
        {
          "internalType": "uint256",
          "name": "",
          "type": "uint256"
        }
      ],
      "name": "propertiesMapping",
      "outputs": [
        {
          "internalType": "address",
          "name": "ownerAddress",
          "type": "address"
        },
        {
          "internalType": "uint256",
          "name": "ID",
          "type": "uint256"
        },
        {
          "internalType": "string",
          "name": "location",
          "type": "string"
        },
        {
          "internalType": "uint256",
          "name": "cost",
          "type": "uint256"
        }
      ],
      "stateMutability": "view",
      "type": "function",
      "constant": true
    },
    {
      "inputs": [],
      "name": "renounceOwnership",
      "outputs": [],
      "stateMutability": "nonpayable",
      "type": "function"
    },
    {
      "inputs": [],
      "name": "totalPropertyCounter",
      "outputs": [
        {
          "internalType": "uint256",
          "name": "",
          "type": "uint256"
        }
      ],
      "stateMutability": "view",
      "type": "function",
      "constant": true
    },
    {
      "inputs": [
        {
          "internalType": "address",
          "name": "newOwner",
          "type": "address"
        }
      ],
      "name": "transferOwnership",
      "outputs": [],
      "stateMutability": "nonpayable",
      "type": "function"
    },
    {
      "inputs": [
        {
          "internalType": "bytes32",
          "name": "",
          "type": "bytes32"
        },
        {
          "internalType": "string",
          "name": "result",
          "type": "string"
        }
      ],
      "name": "__callback",
      "outputs": [],
      "stateMutability": "nonpayable",
      "type": "function"
    },
    {
      "inputs": [
        {
          "internalType": "bytes32",
          "name": "_myid",
          "type": "bytes32"
        },
        {
          "internalType": "string",
          "name": "_result",
          "type": "string"
        },
        {
          "internalType": "bytes",
          "name": "_proof",
          "type": "bytes"
        }
      ],
      "name": "__callback",
      "outputs": [],
      "stateMutability": "nonpayable",
      "type": "function"
    },
    {
      "inputs": [
        {
          "internalType": "string",
          "name": "_location",
          "type": "string"
        }
      ],
      "name": "getAPICheck",
      "outputs": [],
      "stateMutability": "payable",
      "type": "function",
      "payable": true
    },
    {
      "inputs": [
        {
          "internalType": "string",
          "name": "a",
          "type": "string"
        },
        {
          "internalType": "string",
          "name": "b",
          "type": "string"
        },
        {
          "internalType": "string",
          "name": "c",
          "type": "string"
        }
      ],
      "name": "concatenate",
      "outputs": [
        {
          "internalType": "string",
          "name": "",
          "type": "string"
        }
      ],
      "stateMutability": "pure",
      "type": "function",
      "constant": true
    },
    {
      "inputs": [
        {
          "internalType": "string",
          "name": "_location",
          "type": "string"
        },
        {
          "internalType": "uint256",
          "name": "_cost",
          "type": "uint256"
        }
      ],
      "name": "registerProperty",
      "outputs": [],
      "stateMutability": "nonpayable",
      "type": "function"
    },
    {
      "inputs": [
        {
          "internalType": "address",
          "name": "_Buyer",
          "type": "address"
        },
        {
          "internalType": "uint256",
          "name": "_ID",
          "type": "uint256"
        }
      ],
      "name": "transferProperty",
      "outputs": [],
      "stateMutability": "nonpayable",
      "type": "function"
    },
    {
      "inputs": [
        {
          "internalType": "address",
          "name": "_propertyHolder",
          "type": "address"
        },
        {
          "internalType": "uint256",
          "name": "_index",
          "type": "uint256"
        }
      ],
      "name": "getProperty",
      "outputs": [
        {
          "internalType": "string",
          "name": "",
          "type": "string"
        },
        {
          "internalType": "uint256",
          "name": "",
          "type": "uint256"
        },
        {
          "internalType": "address",
          "name": "",
          "type": "address"
        },
        {
          "internalType": "uint256",
          "name": "",
          "type": "uint256"
        }
      ],
      "stateMutability": "view",
      "type": "function",
      "constant": true
    },
    {
      "inputs": [],
      "name": "getProperties",
      "outputs": [
        {
          "components": [
            {
              "internalType": "address",
              "name": "ownerAddress",
              "type": "address"
            },
            {
              "internalType": "uint256",
              "name": "ID",
              "type": "uint256"
            },
            {
              "internalType": "string",
              "name": "location",
              "type": "string"
            },
            {
              "internalType": "uint256",
              "name": "cost",
              "type": "uint256"
            }
          ],
          "internalType": "struct PropertyContract.Property[]",
          "name": "",
          "type": "tuple[]"
        }
      ],
      "stateMutability": "view",
      "type": "function",
      "constant": true
    },
    {
      "inputs": [
        {
          "internalType": "address",
          "name": "__propertyHolder",
          "type": "address"
        }
      ],
      "name": "getNoOfProperties",
      "outputs": [
        {
          "internalType": "uint256",
          "name": "",
          "type": "uint256"
        }
      ],
      "stateMutability": "view",
      "type": "function",
      "constant": true
    },
    {
      "inputs": [
        {
          "internalType": "address",
          "name": "__propertyHolder",
          "type": "address"
        },
        {
          "internalType": "uint256",
          "name": "_ID",
          "type": "uint256"
        }
      ],
      "name": "deleteProperty",
      "outputs": [],
      "stateMutability": "nonpayable",
      "type": "function"
    }
  ],
  "bytecode": "0x60806040523480156200001157600080fd5b50600062000024620000c960201b60201c565b905080600560006101000a81548173ffffffffffffffffffffffffffffffffffffffff021916908373ffffffffffffffffffffffffffffffffffffffff1602179055508073ffffffffffffffffffffffffffffffffffffffff16600073ffffffffffffffffffffffffffffffffffffffff167f8be0079c531659141344cd1fd0a4f28419497f9722a3daafe3b4186f6b6457e060405160405180910390a350620000d1565b600033905090565b613d0780620000e16000396000f3fe6080604052600436106101095760003560e01c80639822b05711610095578063d2ddc65c11610064578063d2ddc65c14610362578063def79ab51461038b578063ec0cfd0b146103c8578063f2fde38b146103f3578063f644c3181461041c57610109565b80639822b0571461029e578063a075a02d146102ba578063aab1d2cd146102e5578063bfb6bd1f1461032257610109565b806343d3b1be116100dc57806343d3b1be146101dd578063715018a614610208578063739b1fa21461021f5780637c5397181461024a5780638da5cb5b1461027357610109565b8063127be9b61461010e57806327dc297e1461014e57806332cf859f1461017757806338bbfa50146101b4575b600080fd5b34801561011a57600080fd5b50610135600480360381019061013091906132cf565b610445565b60405161014594939291906138c6565b60405180910390f35b34801561015a57600080fd5b5061017560048036038101906101709190613334565b610547565b005b34801561018357600080fd5b5061019e6004803603810190610199919061327d565b6105a1565b6040516101ab9190613a8b565b60405180910390f35b3480156101c057600080fd5b506101db60048036038101906101d69190613388565b6105f2565b005b3480156101e957600080fd5b506101f2610615565b6040516101ff9190613a8b565b60405180910390f35b34801561021457600080fd5b5061021d61061b565b005b34801561022b57600080fd5b50610234610758565b6040516102419190613a8b565b60405180910390f35b34801561025657600080fd5b50610271600480360381019061026c91906134df565b61075e565b005b34801561027f57600080fd5b5061028861098a565b60405161029591906138ab565b60405180910390f35b6102b860048036038101906102b39190613407565b6109b4565b005b3480156102c657600080fd5b506102cf610ae9565b6040516102dc91906139bd565b60405180910390f35b3480156102f157600080fd5b5061030c60048036038101906103079190613448565b610b87565b60405161031991906139bd565b60405180910390f35b34801561032e57600080fd5b50610349600480360381019061034491906132cf565b610bb6565b60405161035994939291906139df565b60405180910390f35b34801561036e57600080fd5b50610389600480360381019061038491906132cf565b610e47565b005b34801561039757600080fd5b506103b260048036038101906103ad9190613533565b611361565b6040516103bf91906138ab565b60405180910390f35b3480156103d457600080fd5b506103dd61139d565b6040516103ea9190613912565b60405180910390f35b3480156103ff57600080fd5b5061041a6004803603810190610415919061327d565b61159a565b005b34801561042857600080fd5b50610443600480360381019061043e91906132cf565b611746565b005b600a602052816000526040600020818154811061045e57fe5b9060005260206000209060040201600091509150508060000160009054906101000a900473ffffffffffffffffffffffffffffffffffffffff1690806001015490806002018054600181600116156101000203166002900480601f0160208091040260200160405190810160405280929190818152602001828054600181600116156101000203166002900480156105375780601f1061050c57610100808354040283529160200191610537565b820191906000526020600020905b81548152906001019060200180831161051a57829003601f168201915b5050505050908060030154905084565b61054f611fe6565b73ffffffffffffffffffffffffffffffffffffffff163373ffffffffffffffffffffffffffffffffffffffff161461058657600080fd5b806006908051906020019061059c929190612fad565b505050565b600080600a60008473ffffffffffffffffffffffffffffffffffffffff1673ffffffffffffffffffffffffffffffffffffffff16815260200190815260200160002080549050905080915050919050565b6000801b600360008060001b815260200190815260200160002081905550505050565b60075481565b6106236122fa565b73ffffffffffffffffffffffffffffffffffffffff1661064161098a565b73ffffffffffffffffffffffffffffffffffffffff1614610697576040517f08c379a000000000000000000000000000000000000000000000000000000000815260040161068e90613a6b565b60405180910390fd5b600073ffffffffffffffffffffffffffffffffffffffff16600560009054906101000a900473ffffffffffffffffffffffffffffffffffffffff1673ffffffffffffffffffffffffffffffffffffffff167f8be0079c531659141344cd1fd0a4f28419497f9722a3daafe3b4186f6b6457e060405160405180910390a36000600560006101000a81548173ffffffffffffffffffffffffffffffffffffffff021916908373ffffffffffffffffffffffffffffffffffffffff160217905550565b60085481565b600a8060003373ffffffffffffffffffffffffffffffffffffffff1673ffffffffffffffffffffffffffffffffffffffff16815260200190815260200160002080549050106107ac57600080fd5b6001600854016008819055506107c061302d565b60405180608001604052803373ffffffffffffffffffffffffffffffffffffffff1681526020016008548152602001848152602001838152509050600a60003373ffffffffffffffffffffffffffffffffffffffff1673ffffffffffffffffffffffffffffffffffffffff16815260200190815260200160002081908060018154018082558091505060019003906000526020600020906004020160009091909190915060008201518160000160006101000a81548173ffffffffffffffffffffffffffffffffffffffff021916908373ffffffffffffffffffffffffffffffffffffffff1602179055506020820151816001015560408201518160020190805190602001906108d1929190612fad565b506060820151816003015550506009339080600181540180825580915050600190039060005260206000200160009091909190916101000a81548173ffffffffffffffffffffffffffffffffffffffff021916908373ffffffffffffffffffffffffffffffffffffffff1602179055506000600190507f53a807395c0ba1630d96bb740c116f37e655d23ff63c0e8a06e9c6912eb263bd81836020015160405161097c92919061394f565b60405180910390a150505050565b6000600560009054906101000a900473ffffffffffffffffffffffffffffffffffffffff16905090565b6109f26040518060400160405280600381526020017f55524c0000000000000000000000000000000000000000000000000000000000815250612302565b600781905550600754471015610a3d576040517f08c379a0000000000000000000000000000000000000000000000000000000008152600401610a3490613a4b565b60405180910390fd5b6060604051806060016040528060398152602001613c9960399139905060606040518060400160405280600c81526020017f292e636f756e745f68697473000000000000000000000000000000000000000081525090506060610aa1838584610b87565b9050610ae26040518060400160405280600381526020017f55524c000000000000000000000000000000000000000000000000000000000081525082612623565b5050505050565b60068054600181600116156101000203166002900480601f016020809104026020016040519081016040528092919081815260200182805460018160011615610100020316600290048015610b7f5780601f10610b5457610100808354040283529160200191610b7f565b820191906000526020600020905b815481529060010190602001808311610b6257829003601f168201915b505050505081565b6060838383604051602001610b9e9392919061387a565b60405160208183030381529060405290509392505050565b6060600080600080600a60008873ffffffffffffffffffffffffffffffffffffffff1673ffffffffffffffffffffffffffffffffffffffff1681526020019081526020016000208054905011610c0b57600080fd5b600a60008773ffffffffffffffffffffffffffffffffffffffff1673ffffffffffffffffffffffffffffffffffffffff1681526020019081526020016000208581548110610c5557fe5b9060005260206000209060040201600201600a60008873ffffffffffffffffffffffffffffffffffffffff1673ffffffffffffffffffffffffffffffffffffffff1681526020019081526020016000208681548110610cb057fe5b906000526020600020906004020160030154600a60008973ffffffffffffffffffffffffffffffffffffffff1673ffffffffffffffffffffffffffffffffffffffff1681526020019081526020016000208781548110610d0c57fe5b906000526020600020906004020160000160009054906101000a900473ffffffffffffffffffffffffffffffffffffffff16600a60008a73ffffffffffffffffffffffffffffffffffffffff1673ffffffffffffffffffffffffffffffffffffffff1681526020019081526020016000208881548110610d8857fe5b906000526020600020906004020160010154838054600181600116156101000203166002900480601f016020809104026020016040519081016040528092919081815260200182805460018160011615610100020316600290048015610e2f5780601f10610e0457610100808354040283529160200191610e2f565b820191906000526020600020905b815481529060010190602001808311610e1257829003601f168201915b50505050509350935093509350935092959194509250565b610e4f6122fa565b73ffffffffffffffffffffffffffffffffffffffff16610e6d61098a565b73ffffffffffffffffffffffffffffffffffffffff1614610ec3576040517f08c379a0000000000000000000000000000000000000000000000000000000008152600401610eba90613a6b565b60405180910390fd5b610ecb61302d565b600a60008473ffffffffffffffffffffffffffffffffffffffff1673ffffffffffffffffffffffffffffffffffffffff1681526020019081526020016000208281548110610f1557fe5b90600052602060002090600402016040518060800160405290816000820160009054906101000a900473ffffffffffffffffffffffffffffffffffffffff1673ffffffffffffffffffffffffffffffffffffffff1673ffffffffffffffffffffffffffffffffffffffff16815260200160018201548152602001600282018054600181600116156101000203166002900480601f0160208091040260200160405190810160405280929190818152602001828054600181600116156101000203166002900480156110275780601f10610ffc57610100808354040283529160200191611027565b820191906000526020600020905b81548152906001019060200180831161100a57829003601f168201915b5050505050815260200160038201548152505090506000600a60008573ffffffffffffffffffffffffffffffffffffffff1673ffffffffffffffffffffffffffffffffffffffff168152602001908152602001600020805490509050600a60008573ffffffffffffffffffffffffffffffffffffffff1673ffffffffffffffffffffffffffffffffffffffff16815260200190815260200160002060018203815481106110d057fe5b9060005260206000209060040201600a60008673ffffffffffffffffffffffffffffffffffffffff1673ffffffffffffffffffffffffffffffffffffffff168152602001908152602001600020848154811061112857fe5b90600052602060002090600402016000820160009054906101000a900473ffffffffffffffffffffffffffffffffffffffff168160000160006101000a81548173ffffffffffffffffffffffffffffffffffffffff021916908373ffffffffffffffffffffffffffffffffffffffff16021790555060018201548160010155600282018160020190805460018160011615610100020316600290046111ce92919061306b565b506003820154816003015590505081600a60008673ffffffffffffffffffffffffffffffffffffffff1673ffffffffffffffffffffffffffffffffffffffff168152602001908152602001600020600183038154811061122a57fe5b906000526020600020906004020160008201518160000160006101000a81548173ffffffffffffffffffffffffffffffffffffffff021916908373ffffffffffffffffffffffffffffffffffffffff1602179055506020820151816001015560408201518160020190805190602001906112a5929190612fad565b5060608201518160030155905050600a60008573ffffffffffffffffffffffffffffffffffffffff1673ffffffffffffffffffffffffffffffffffffffff1681526020019081526020016000208054806112fb57fe5b6001900381819060005260206000209060040201600080820160006101000a81549073ffffffffffffffffffffffffffffffffffffffff0219169055600182016000905560028201600061134f91906130f2565b60038201600090555050905550505050565b6009818154811061136e57fe5b906000526020600020016000915054906101000a900473ffffffffffffffffffffffffffffffffffffffff1681565b60606000600a60003373ffffffffffffffffffffffffffffffffffffffff1673ffffffffffffffffffffffffffffffffffffffff16815260200190815260200160002080549050116113ee57600080fd5b6060600a60003373ffffffffffffffffffffffffffffffffffffffff1673ffffffffffffffffffffffffffffffffffffffff168152602001908152602001600020805480602002602001604051908101604052809291908181526020016000905b8282101561158d57838290600052602060002090600402016040518060800160405290816000820160009054906101000a900473ffffffffffffffffffffffffffffffffffffffff1673ffffffffffffffffffffffffffffffffffffffff1673ffffffffffffffffffffffffffffffffffffffff16815260200160018201548152602001600282018054600181600116156101000203166002900480601f01602080910402602001604051908101604052809291908181526020018280546001816001161561010002031660029004801561156b5780601f106115405761010080835404028352916020019161156b565b820191906000526020600020905b81548152906001019060200180831161154e57829003601f168201915b505050505081526020016003820154815250508152602001906001019061144f565b5050505090508091505090565b6115a26122fa565b73ffffffffffffffffffffffffffffffffffffffff166115c061098a565b73ffffffffffffffffffffffffffffffffffffffff1614611616576040517f08c379a000000000000000000000000000000000000000000000000000000000815260040161160d90613a6b565b60405180910390fd5b600073ffffffffffffffffffffffffffffffffffffffff168173ffffffffffffffffffffffffffffffffffffffff161415611686576040517f08c379a000000000000000000000000000000000000000000000000000000000815260040161167d90613a2b565b60405180910390fd5b8073ffffffffffffffffffffffffffffffffffffffff16600560009054906101000a900473ffffffffffffffffffffffffffffffffffffffff1673ffffffffffffffffffffffffffffffffffffffff167f8be0079c531659141344cd1fd0a4f28419497f9722a3daafe3b4186f6b6457e060405160405180910390a380600560006101000a81548173ffffffffffffffffffffffffffffffffffffffff021916908373ffffffffffffffffffffffffffffffffffffffff16021790555050565b3373ffffffffffffffffffffffffffffffffffffffff168273ffffffffffffffffffffffffffffffffffffffff16141561177f57600080fd5b6000805b600a60003373ffffffffffffffffffffffffffffffffffffffff1673ffffffffffffffffffffffffffffffffffffffff16815260200190815260200160002080549050811015611fa95782600a60003373ffffffffffffffffffffffffffffffffffffffff1673ffffffffffffffffffffffffffffffffffffffff168152602001908152602001600020828154811061181857fe5b9060005260206000209060040201600101541415611f9c5761183861302d565b60405180608001604052808673ffffffffffffffffffffffffffffffffffffffff168152602001858152602001600a60003373ffffffffffffffffffffffffffffffffffffffff1673ffffffffffffffffffffffffffffffffffffffff16815260200190815260200160002084815481106118af57fe5b90600052602060002090600402016002018054600181600116156101000203166002900480601f0160208091040260200160405190810160405280929190818152602001828054600181600116156101000203166002900480156119545780601f1061192957610100808354040283529160200191611954565b820191906000526020600020905b81548152906001019060200180831161193757829003601f168201915b50505050508152602001600a60003373ffffffffffffffffffffffffffffffffffffffff1673ffffffffffffffffffffffffffffffffffffffff16815260200190815260200160002084815481106119a857fe5b9060005260206000209060040201600301548152509050600a60008673ffffffffffffffffffffffffffffffffffffffff1673ffffffffffffffffffffffffffffffffffffffff16815260200190815260200160002081908060018154018082558091505060019003906000526020600020906004020160009091909190915060008201518160000160006101000a81548173ffffffffffffffffffffffffffffffffffffffff021916908373ffffffffffffffffffffffffffffffffffffffff160217905550602082015181600101556040820151816002019080519060200190611a95929190612fad565b50606082015181600301555050611aaa61302d565b600a60003373ffffffffffffffffffffffffffffffffffffffff1673ffffffffffffffffffffffffffffffffffffffff1681526020019081526020016000208381548110611af457fe5b90600052602060002090600402016040518060800160405290816000820160009054906101000a900473ffffffffffffffffffffffffffffffffffffffff1673ffffffffffffffffffffffffffffffffffffffff1673ffffffffffffffffffffffffffffffffffffffff16815260200160018201548152602001600282018054600181600116156101000203166002900480601f016020809104026020016040519081016040528092919081815260200182805460018160011615610100020316600290048015611c065780601f10611bdb57610100808354040283529160200191611c06565b820191906000526020600020905b815481529060010190602001808311611be957829003601f168201915b5050505050815260200160038201548152505090506000600a60003373ffffffffffffffffffffffffffffffffffffffff1673ffffffffffffffffffffffffffffffffffffffff168152602001908152602001600020805490509050600a60003373ffffffffffffffffffffffffffffffffffffffff1673ffffffffffffffffffffffffffffffffffffffff1681526020019081526020016000206001820381548110611caf57fe5b9060005260206000209060040201600a60003373ffffffffffffffffffffffffffffffffffffffff1673ffffffffffffffffffffffffffffffffffffffff1681526020019081526020016000208581548110611d0757fe5b90600052602060002090600402016000820160009054906101000a900473ffffffffffffffffffffffffffffffffffffffff168160000160006101000a81548173ffffffffffffffffffffffffffffffffffffffff021916908373ffffffffffffffffffffffffffffffffffffffff1602179055506001820154816001015560028201816002019080546001816001161561010002031660029004611dad92919061306b565b506003820154816003015590505081600a60003373ffffffffffffffffffffffffffffffffffffffff1673ffffffffffffffffffffffffffffffffffffffff1681526020019081526020016000206001830381548110611e0957fe5b906000526020600020906004020160008201518160000160006101000a81548173ffffffffffffffffffffffffffffffffffffffff021916908373ffffffffffffffffffffffffffffffffffffffff160217905550602082015181600101556040820151816002019080519060200190611e84929190612fad565b5060608201518160030155905050600a60003373ffffffffffffffffffffffffffffffffffffffff1673ffffffffffffffffffffffffffffffffffffffff168152602001908152602001600020805480611eda57fe5b6001900381819060005260206000209060040201600080820160006101000a81549073ffffffffffffffffffffffffffffffffffffffff02191690556001820160009055600282016000611f2e91906130f2565b600382016000905550509055866009846020015181548110611f4c57fe5b9060005260206000200160006101000a81548173ffffffffffffffffffffffffffffffffffffffff021916908373ffffffffffffffffffffffffffffffffffffffff160217905550600194505050505b8080600101915050611783565b507f6f1e8342d6d6686ceab45e1fe56699719353205a380f6107705044e5c4444e3281604051611fd99190613934565b60405180910390a1505050565b60008073ffffffffffffffffffffffffffffffffffffffff16600160009054906101000a900473ffffffffffffffffffffffffffffffffffffffff1673ffffffffffffffffffffffffffffffffffffffff16148061206e5750600061206c600160009054906101000a900473ffffffffffffffffffffffffffffffffffffffff16612a20565b145b1561207f5761207d6000612a2b565b505b600160009054906101000a900473ffffffffffffffffffffffffffffffffffffffff1673ffffffffffffffffffffffffffffffffffffffff166338cc48316040518163ffffffff1660e01b8152600401602060405180830381600087803b1580156120e957600080fd5b505af11580156120fd573d6000803e3d6000fd5b505050506040513d601f19601f8201168201806040525081019061212191906132a6565b73ffffffffffffffffffffffffffffffffffffffff1660008054906101000a900473ffffffffffffffffffffffffffffffffffffffff1673ffffffffffffffffffffffffffffffffffffffff161461225557600160009054906101000a900473ffffffffffffffffffffffffffffffffffffffff1673ffffffffffffffffffffffffffffffffffffffff166338cc48316040518163ffffffff1660e01b8152600401602060405180830381600087803b1580156121dd57600080fd5b505af11580156121f1573d6000803e3d6000fd5b505050506040513d601f19601f8201168201806040525081019061221591906132a6565b6000806101000a81548173ffffffffffffffffffffffffffffffffffffffff021916908373ffffffffffffffffffffffffffffffffffffffff1602179055505b60008054906101000a900473ffffffffffffffffffffffffffffffffffffffff1673ffffffffffffffffffffffffffffffffffffffff1663c281d19e6040518163ffffffff1660e01b8152600401602060405180830381600087803b1580156122bd57600080fd5b505af11580156122d1573d6000803e3d6000fd5b505050506040513d601f19601f820116820180604052508101906122f591906132a6565b905090565b600033905090565b60008073ffffffffffffffffffffffffffffffffffffffff16600160009054906101000a900473ffffffffffffffffffffffffffffffffffffffff1673ffffffffffffffffffffffffffffffffffffffff16148061238a57506000612388600160009054906101000a900473ffffffffffffffffffffffffffffffffffffffff16612a20565b145b1561239b576123996000612a2b565b505b600160009054906101000a900473ffffffffffffffffffffffffffffffffffffffff1673ffffffffffffffffffffffffffffffffffffffff166338cc48316040518163ffffffff1660e01b8152600401602060405180830381600087803b15801561240557600080fd5b505af1158015612419573d6000803e3d6000fd5b505050506040513d601f19601f8201168201806040525081019061243d91906132a6565b73ffffffffffffffffffffffffffffffffffffffff1660008054906101000a900473ffffffffffffffffffffffffffffffffffffffff1673ffffffffffffffffffffffffffffffffffffffff161461257157600160009054906101000a900473ffffffffffffffffffffffffffffffffffffffff1673ffffffffffffffffffffffffffffffffffffffff166338cc48316040518163ffffffff1660e01b8152600401602060405180830381600087803b1580156124f957600080fd5b505af115801561250d573d6000803e3d6000fd5b505050506040513d601f19601f8201168201806040525081019061253191906132a6565b6000806101000a81548173ffffffffffffffffffffffffffffffffffffffff021916908373ffffffffffffffffffffffffffffffffffffffff1602179055505b60008054906101000a900473ffffffffffffffffffffffffffffffffffffffff1673ffffffffffffffffffffffffffffffffffffffff1663524f3889836040518263ffffffff1660e01b81526004016125ca91906139bd565b602060405180830381600087803b1580156125e457600080fd5b505af11580156125f8573d6000803e3d6000fd5b505050506040513d601f19601f8201168201806040525081019061261c919061355c565b9050919050565b60008073ffffffffffffffffffffffffffffffffffffffff16600160009054906101000a900473ffffffffffffffffffffffffffffffffffffffff1673ffffffffffffffffffffffffffffffffffffffff1614806126ab575060006126a9600160009054906101000a900473ffffffffffffffffffffffffffffffffffffffff16612a20565b145b156126bc576126ba6000612a2b565b505b600160009054906101000a900473ffffffffffffffffffffffffffffffffffffffff1673ffffffffffffffffffffffffffffffffffffffff166338cc48316040518163ffffffff1660e01b8152600401602060405180830381600087803b15801561272657600080fd5b505af115801561273a573d6000803e3d6000fd5b505050506040513d601f19601f8201168201806040525081019061275e91906132a6565b73ffffffffffffffffffffffffffffffffffffffff1660008054906101000a900473ffffffffffffffffffffffffffffffffffffffff1673ffffffffffffffffffffffffffffffffffffffff161461289257600160009054906101000a900473ffffffffffffffffffffffffffffffffffffffff1673ffffffffffffffffffffffffffffffffffffffff166338cc48316040518163ffffffff1660e01b8152600401602060405180830381600087803b15801561281a57600080fd5b505af115801561282e573d6000803e3d6000fd5b505050506040513d601f19601f8201168201806040525081019061285291906132a6565b6000806101000a81548173ffffffffffffffffffffffffffffffffffffffff021916908373ffffffffffffffffffffffffffffffffffffffff1602179055505b60008060009054906101000a900473ffffffffffffffffffffffffffffffffffffffff1673ffffffffffffffffffffffffffffffffffffffff1663524f3889856040518263ffffffff1660e01b81526004016128ee91906139bd565b602060405180830381600087803b15801561290857600080fd5b505af115801561291c573d6000803e3d6000fd5b505050506040513d601f19601f82011682018060405250810190612940919061355c565b905062030d403a02670de0b6b3a764000001811115612965576000801b915050612a1a565b60008054906101000a900473ffffffffffffffffffffffffffffffffffffffff1673ffffffffffffffffffffffffffffffffffffffff1663adf59f9982600087876040518563ffffffff1660e01b81526004016129c493929190613978565b6020604051808303818588803b1580156129dd57600080fd5b505af11580156129f1573d6000803e3d6000fd5b50505050506040513d601f19601f82011682018060405250810190612a16919061330b565b9150505b92915050565b6000813b9050919050565b6000612a35612a3c565b9050919050565b600080612a5c731d3b2638a7cc9f2cb3d298a3da7a90b67e5506ed612a20565b1115612afe57731d3b2638a7cc9f2cb3d298a3da7a90b67e5506ed600160006101000a81548173ffffffffffffffffffffffffffffffffffffffff021916908373ffffffffffffffffffffffffffffffffffffffff160217905550612af56040518060400160405280600b81526020017f6574685f6d61696e6e6574000000000000000000000000000000000000000000815250612f93565b60019050612f90565b6000612b1d73c03a2615d5efaf5f49f60b7bb6583eaec212fdf1612a20565b1115612bbf5773c03a2615d5efaf5f49f60b7bb6583eaec212fdf1600160006101000a81548173ffffffffffffffffffffffffffffffffffffffff021916908373ffffffffffffffffffffffffffffffffffffffff160217905550612bb66040518060400160405280600c81526020017f6574685f726f707374656e330000000000000000000000000000000000000000815250612f93565b60019050612f90565b6000612bde73b7a07bcf2ba2f2703b24c0691b5278999c59ac7e612a20565b1115612c805773b7a07bcf2ba2f2703b24c0691b5278999c59ac7e600160006101000a81548173ffffffffffffffffffffffffffffffffffffffff021916908373ffffffffffffffffffffffffffffffffffffffff160217905550612c776040518060400160405280600981526020017f6574685f6b6f76616e0000000000000000000000000000000000000000000000815250612f93565b60019050612f90565b6000612c9f73146500cfd35b22e4a392fe0adc06de1a1368ed48612a20565b1115612d415773146500cfd35b22e4a392fe0adc06de1a1368ed48600160006101000a81548173ffffffffffffffffffffffffffffffffffffffff021916908373ffffffffffffffffffffffffffffffffffffffff160217905550612d386040518060400160405280600b81526020017f6574685f72696e6b656279000000000000000000000000000000000000000000815250612f93565b60019050612f90565b6000612d6073a2998efd205fb9d4b4963afb70778d6354ad3a41612a20565b1115612e025773a2998efd205fb9d4b4963afb70778d6354ad3a41600160006101000a81548173ffffffffffffffffffffffffffffffffffffffff021916908373ffffffffffffffffffffffffffffffffffffffff160217905550612df96040518060400160405280600a81526020017f6574685f676f65726c6900000000000000000000000000000000000000000000815250612f93565b60019050612f90565b6000612e21736f485c8bf6fc43ea212e93bbf8ce046c7f1cb475612a20565b1115612e8557736f485c8bf6fc43ea212e93bbf8ce046c7f1cb475600160006101000a81548173ffffffffffffffffffffffffffffffffffffffff021916908373ffffffffffffffffffffffffffffffffffffffff16021790555060019050612f90565b6000612ea47320e12a1f859b3feae5fb2a0a32c18f5a65555bbf612a20565b1115612f08577320e12a1f859b3feae5fb2a0a32c18f5a65555bbf600160006101000a81548173ffffffffffffffffffffffffffffffffffffffff021916908373ffffffffffffffffffffffffffffffffffffffff16021790555060019050612f90565b6000612f277351efaf4c8b3c9afbd5ab9f4bbc82784ab6ef8faa612a20565b1115612f8b577351efaf4c8b3c9afbd5ab9f4bbc82784ab6ef8faa600160006101000a81548173ffffffffffffffffffffffffffffffffffffffff021916908373ffffffffffffffffffffffffffffffffffffffff16021790555060019050612f90565b600090505b90565b8060029080519060200190612fa9929190612fad565b5050565b828054600181600116156101000203166002900490600052602060002090601f016020900481019282601f10612fee57805160ff191683800117855561301c565b8280016001018555821561301c579182015b8281111561301b578251825591602001919060010190613000565b5b509050613029919061313a565b5090565b6040518060800160405280600073ffffffffffffffffffffffffffffffffffffffff1681526020016000815260200160608152602001600081525090565b828054600181600116156101000203166002900490600052602060002090601f016020900481019282601f106130a457805485556130e1565b828001600101855582156130e157600052602060002091601f016020900482015b828111156130e05782548255916001019190600101906130c5565b5b5090506130ee919061313a565b5090565b50805460018160011615610100020316600290046000825580601f106131185750613137565b601f016020900490600052602060002090810190613136919061313a565b5b50565b5b8082111561315357600081600090555060010161313b565b5090565b60008135905061316681613c53565b92915050565b60008151905061317b81613c53565b92915050565b60008135905061319081613c6a565b92915050565b6000815190506131a581613c6a565b92915050565b600082601f8301126131bc57600080fd5b81356131cf6131ca82613ad3565b613aa6565b915080825260208301602083018583830111156131eb57600080fd5b6131f6838284613c00565b50505092915050565b600082601f83011261321057600080fd5b813561322361321e82613aff565b613aa6565b9150808252602083016020830185838301111561323f57600080fd5b61324a838284613c00565b50505092915050565b60008135905061326281613c81565b92915050565b60008151905061327781613c81565b92915050565b60006020828403121561328f57600080fd5b600061329d84828501613157565b91505092915050565b6000602082840312156132b857600080fd5b60006132c68482850161316c565b91505092915050565b600080604083850312156132e257600080fd5b60006132f085828601613157565b925050602061330185828601613253565b9150509250929050565b60006020828403121561331d57600080fd5b600061332b84828501613196565b91505092915050565b6000806040838503121561334757600080fd5b600061335585828601613181565b925050602083013567ffffffffffffffff81111561337257600080fd5b61337e858286016131ff565b9150509250929050565b60008060006060848603121561339d57600080fd5b60006133ab86828701613181565b935050602084013567ffffffffffffffff8111156133c857600080fd5b6133d4868287016131ff565b925050604084013567ffffffffffffffff8111156133f157600080fd5b6133fd868287016131ab565b9150509250925092565b60006020828403121561341957600080fd5b600082013567ffffffffffffffff81111561343357600080fd5b61343f848285016131ff565b91505092915050565b60008060006060848603121561345d57600080fd5b600084013567ffffffffffffffff81111561347757600080fd5b613483868287016131ff565b935050602084013567ffffffffffffffff8111156134a057600080fd5b6134ac868287016131ff565b925050604084013567ffffffffffffffff8111156134c957600080fd5b6134d5868287016131ff565b9150509250925092565b600080604083850312156134f257600080fd5b600083013567ffffffffffffffff81111561350c57600080fd5b613518858286016131ff565b925050602061352985828601613253565b9150509250929050565b60006020828403121561354557600080fd5b600061355384828501613253565b91505092915050565b60006020828403121561356e57600080fd5b600061357c84828501613268565b91505092915050565b600061359183836137f9565b905092915050565b6135a281613b9c565b82525050565b6135b181613b9c565b82525050565b60006135c282613b3b565b6135cc8185613b5e565b9350836020820285016135de85613b2b565b8060005b8581101561361a57848403895281516135fb8582613585565b945061360683613b51565b925060208a019950506001810190506135e2565b50829750879550505050505092915050565b61363581613bae565b82525050565b61364481613bee565b82525050565b600061365582613b46565b61365f8185613b6f565b935061366f818560208601613c0f565b61367881613c42565b840191505092915050565b600061368e82613b46565b6136988185613b80565b93506136a8818560208601613c0f565b6136b181613c42565b840191505092915050565b60006136c782613b46565b6136d18185613b91565b93506136e1818560208601613c0f565b80840191505092915050565b60006136fa602683613b80565b91507f4f776e61626c653a206e6577206f776e657220697320746865207a65726f206160008301527f64647265737300000000000000000000000000000000000000000000000000006020830152604082019050919050565b6000613760602e83613b80565b91507f706c656173652061646420736f6d652045544820746f20636f76657220666f7260008301527f20746865207175657279206665650000000000000000000000000000000000006020830152604082019050919050565b60006137c6602083613b80565b91507f4f776e61626c653a2063616c6c6572206973206e6f7420746865206f776e65726000830152602082019050919050565b60006080830160008301516138116000860182613599565b506020830151613824602086018261385c565b506040830151848203604086015261383c828261364a565b9150506060830151613851606086018261385c565b508091505092915050565b61386581613be4565b82525050565b61387481613be4565b82525050565b600061388682866136bc565b915061389282856136bc565b915061389e82846136bc565b9150819050949350505050565b60006020820190506138c060008301846135a8565b92915050565b60006080820190506138db60008301876135a8565b6138e8602083018661386b565b81810360408301526138fa8185613683565b9050613909606083018461386b565b95945050505050565b6000602082019050818103600083015261392c81846135b7565b905092915050565b6000602082019050613949600083018461362c565b92915050565b6000604082019050613964600083018561362c565b613971602083018461386b565b9392505050565b600060608201905061398d600083018661363b565b818103602083015261399f8185613683565b905081810360408301526139b38184613683565b9050949350505050565b600060208201905081810360008301526139d78184613683565b905092915050565b600060808201905081810360008301526139f98187613683565b9050613a08602083018661386b565b613a1560408301856135a8565b613a22606083018461386b565b95945050505050565b60006020820190508181036000830152613a44816136ed565b9050919050565b60006020820190508181036000830152613a6481613753565b9050919050565b60006020820190508181036000830152613a84816137b9565b9050919050565b6000602082019050613aa0600083018461386b565b92915050565b6000604051905081810181811067ffffffffffffffff82111715613ac957600080fd5b8060405250919050565b600067ffffffffffffffff821115613aea57600080fd5b601f19601f8301169050602081019050919050565b600067ffffffffffffffff821115613b1657600080fd5b601f19601f8301169050602081019050919050565b6000819050602082019050919050565b600081519050919050565b600081519050919050565b6000602082019050919050565b600082825260208201905092915050565b600082825260208201905092915050565b600082825260208201905092915050565b600081905092915050565b6000613ba782613bc4565b9050919050565b60008115159050919050565b6000819050919050565b600073ffffffffffffffffffffffffffffffffffffffff82169050919050565b6000819050919050565b6000613bf982613be4565b9050919050565b82818337600083830152505050565b60005b83811015613c2d578082015181840152602081019050613c12565b83811115613c3c576000848401525b50505050565b6000601f19601f8301169050919050565b613c5c81613b9c565b8114613c6757600080fd5b50565b613c7381613bba565b8114613c7e57600080fd5b50565b613c8a81613be4565b8114613c9557600080fd5b5056fe6a736f6e2868747470733a2f2f6170692e646174612e616d7374657264616d2e6e6c2f61746c61732f7365617263682f61647265732f3f713da26469706673582212208362536ff03487364ad7a0580c370b351bab9cab89a175c826cb5167a78acaf764736f6c634300060c0033",
  "immutableReferences": {},
  "source": "/*\nYou can use Play editor with any contract.\nPaste it in the editor and wait for the preview to start interacting with it.\n\n**To interact with the contract you will need a Metamask extension.\n*/\n// SPDX-License-Identifier: MIT\npragma solidity ^0.6.0;\npragma experimental ABIEncoderV2;\nimport \"./provableAPI.sol\";\nimport \"@openzeppelin/contracts/access/Ownable.sol\";\n\ncontract PropertyContract is usingProvable,Ownable\n{\n    \n  //Provable variablesS\n  string  public addressAPICheck;\n  uint256 public priceOfUrl;\n  \n \n  //Property class\n  struct Property \n    {\n        address ownerAddress;\n        uint ID;   \n        string location;\n        uint cost;\n    }\n  \n  // Total count of properties determines property ID, could use random instead.\n  uint public totalPropertyCounter;\n  \n  // quicklist for look up owner of Property by ID, ID = index\n  address[] public ownerList;\n  \n  //The events of a couple functions\n  event transferPropertySucces(bool result); \n  event registerPropertySucces(bool result, uint ID);\n   \n  //mapping of the address to the array of properties\n  mapping (address => Property[]) public propertiesMapping;\n  \n  //Functions for provable API call\n  \n   function __callback(bytes32 /* myid prevent warning*/ , string memory result ) override public {\n       if (msg.sender != provable_cbAddress()) revert();\n       addressAPICheck = result;\n   }\n\n   function getAPICheck(string memory _location) public payable {\n       priceOfUrl = provable_getPrice(\"URL\");\n       require (address(this).balance >= priceOfUrl,\"please add some ETH to cover for the query fee\");\n       string memory localTempStart = \"json(https://api.data.amsterdam.nl/atlas/search/adres/?q=\";\n       string memory localTempEnd = \").count_hits\";\n       string memory localTemp = concatenate(localTempStart , _location,  localTempEnd);\n       provable_query(\"URL\", localTemp);\n   }\n   \n   function concatenate(string memory a,string memory b,string memory c )public pure returns(string memory) {\n            return string(abi.encodePacked(a, b , c));\n        }\n\n\n  //This function register a property for the sender.\n  //Could add some authirization, who could register properties.\n  function registerProperty(string memory _location, uint _cost) public\n    {\n        require(propertiesMapping[msg.sender].length < 10);\n        totalPropertyCounter = totalPropertyCounter + 1;\n        Property memory myproperty = Property(\n           {\n                ownerAddress: msg.sender,\n                location: _location,\n                cost: _cost,\n                ID: totalPropertyCounter\n            });\n        propertiesMapping[msg.sender].push(myproperty);\n        ownerList.push(msg.sender);\n        bool result = true;\n        emit registerPropertySucces(result, myproperty.ID);\n  \n\t}\n  \n  //Transfer property. Push property to buyer , pop properrty from old owner.\n  //Does the old owner transfers to the new owner?\n  function transferProperty(address _Buyer, uint _ID) public\n    {\n        require(_Buyer != msg.sender);\n        bool result = false;\n        for(uint i=0; i < (propertiesMapping[msg.sender].length);i++)    \n        {\n            if (propertiesMapping[msg.sender][i].ID == _ID)\n            {\n                Property memory myproperty = Property(\n                  {\n                    ownerAddress:_Buyer,\n                    location: propertiesMapping[msg.sender][i].location,\n                    cost: propertiesMapping[msg.sender][i].cost,\n                    ID: _ID\n                  });\n                //push property to mapping and remove from other mapping\n                propertiesMapping[_Buyer].push(myproperty);   \n                Property memory temp = propertiesMapping[msg.sender][i];\n                uint arraySize = propertiesMapping[msg.sender].length;\n                propertiesMapping[msg.sender][i] = propertiesMapping[msg.sender][arraySize-1];\n                propertiesMapping[msg.sender][arraySize-1] = temp;\n                propertiesMapping[msg.sender].pop();\n                \n                //change owner in quicklist\n                ownerList[myproperty.ID]=_Buyer;\n                result = true;                \n            }\n        }\n        emit transferPropertySucces(result);                \n    }\n  \n  //Returns property of certain index\n  function getProperty(address _propertyHolder, uint _index) public view returns (string memory, uint, address,uint)\n    {\n        require(propertiesMapping[_propertyHolder].length >0 );\n        return (propertiesMapping[_propertyHolder][_index].location, \n                propertiesMapping[_propertyHolder][_index].cost,\n                propertiesMapping[_propertyHolder][_index].ownerAddress,\n                propertiesMapping[_propertyHolder][_index].ID);\n            \n    }\n\n  function getProperties() public view returns (Property[] memory)\n  {\n    require(propertiesMapping[msg.sender].length >0 );\n    Property[] memory properties = propertiesMapping[msg.sender];\n    return properties;\n  }\n  \n  function getNoOfProperties(address __propertyHolder) public view returns (uint)\n    {\n        uint result = propertiesMapping[__propertyHolder].length;\n        return result;\n    }\n\n//function only the owner can do. PD-12\n   function deleteProperty(address __propertyHolder, uint _ID)public onlyOwner{\n     Property memory temp = propertiesMapping[__propertyHolder][_ID];\n                uint arraySize = propertiesMapping[__propertyHolder].length;\n                propertiesMapping[__propertyHolder][_ID] = propertiesMapping[__propertyHolder][arraySize-1];\n                propertiesMapping[__propertyHolder][arraySize-1] = temp;\n                propertiesMapping[__propertyHolder].pop();\n\n   }\n\n}",
  "sourcePath": "C:/Users/Cas/Documents/GitHub/BC3_Cas/PD-12/contracts/PropertyContract.sol",
  "compiler": {
    "name": "solc",
    "version": "0.6.12+commit.27d51765.Emscripten.clang"
  },
  "schemaVersion": "3.3.3",
  "updatedAt": "2021-02-09T16:12:59.110Z",
  "networkType": "ethereum",
  "devdoc": {
    "kind": "dev",
    "methods": {
      "owner()": {
        "details": "Returns the address of the current owner."
      },
      "renounceOwnership()": {
        "details": "Leaves the contract without owner. It will not be possible to call `onlyOwner` functions anymore. Can only be called by the current owner. NOTE: Renouncing ownership will leave the contract without an owner, thereby removing any functionality that is only available to the owner."
      },
      "transferOwnership(address)": {
        "details": "Transfers ownership of the contract to a new account (`newOwner`). Can only be called by the current owner."
      }
    },
    "version": 1
  },
  "userdoc": {
    "kind": "user",
    "methods": {},
    "version": 1
  }
}